{
  "_format": "hh-sol-artifact-1",
  "contractName": "Token",
  "sourceName": "contracts/Token.sol",
  "abi": [
    {
      "inputs": [],
      "stateMutability": "nonpayable",
      "type": "constructor"
    },
    {
      "inputs": [
        {
          "internalType": "address",
          "name": "spender",
          "type": "address"
        },
        {
          "internalType": "uint256",
          "name": "allowance",
          "type": "uint256"
        },
        {
          "internalType": "uint256",
          "name": "needed",
          "type": "uint256"
        }
      ],
      "name": "ERC20InsufficientAllowance",
      "type": "error"
    },
    {
      "inputs": [
        {
          "internalType": "address",
          "name": "sender",
          "type": "address"
        },
        {
          "internalType": "uint256",
          "name": "balance",
          "type": "uint256"
        },
        {
          "internalType": "uint256",
          "name": "needed",
          "type": "uint256"
        }
      ],
      "name": "ERC20InsufficientBalance",
      "type": "error"
    },
    {
      "inputs": [
        {
          "internalType": "address",
          "name": "approver",
          "type": "address"
        }
      ],
      "name": "ERC20InvalidApprover",
      "type": "error"
    },
    {
      "inputs": [
        {
          "internalType": "address",
          "name": "receiver",
          "type": "address"
        }
      ],
      "name": "ERC20InvalidReceiver",
      "type": "error"
    },
    {
      "inputs": [
        {
          "internalType": "address",
          "name": "sender",
          "type": "address"
        }
      ],
      "name": "ERC20InvalidSender",
      "type": "error"
    },
    {
      "inputs": [
        {
          "internalType": "address",
          "name": "spender",
          "type": "address"
        }
      ],
      "name": "ERC20InvalidSpender",
      "type": "error"
    },
    {
      "inputs": [
        {
          "internalType": "address",
          "name": "owner",
          "type": "address"
        }
      ],
      "name": "OwnableInvalidOwner",
      "type": "error"
    },
    {
      "inputs": [
        {
          "internalType": "address",
          "name": "account",
          "type": "address"
        }
      ],
      "name": "OwnableUnauthorizedAccount",
      "type": "error"
    },
    {
      "inputs": [],
      "name": "VerificationFailed",
      "type": "error"
    },
    {
      "anonymous": false,
      "inputs": [
        {
          "indexed": true,
          "internalType": "address",
          "name": "owner",
          "type": "address"
        },
        {
          "indexed": true,
          "internalType": "address",
          "name": "spender",
          "type": "address"
        },
        {
          "indexed": false,
          "internalType": "uint256",
          "name": "value",
          "type": "uint256"
        }
      ],
      "name": "Approval",
      "type": "event"
    },
    {
      "anonymous": false,
      "inputs": [
        {
          "indexed": true,
          "internalType": "address",
          "name": "previousOwner",
          "type": "address"
        },
        {
          "indexed": true,
          "internalType": "address",
          "name": "newOwner",
          "type": "address"
        }
      ],
      "name": "OwnershipTransferred",
      "type": "event"
    },
    {
      "anonymous": false,
      "inputs": [
        {
          "indexed": true,
          "internalType": "bytes32",
          "name": "nullifierKey",
          "type": "bytes32"
        },
        {
          "indexed": false,
          "internalType": "uint256",
          "name": "amount",
          "type": "uint256"
        }
      ],
      "name": "Remint",
      "type": "event"
    },
    {
      "anonymous": false,
      "inputs": [
        {
          "indexed": false,
          "internalType": "uint256",
          "name": "blockNumber",
          "type": "uint256"
        }
      ],
      "name": "StorageRootAdded",
      "type": "event"
    },
    {
      "anonymous": false,
      "inputs": [
        {
          "indexed": true,
          "internalType": "address",
          "name": "from",
          "type": "address"
        },
        {
          "indexed": true,
          "internalType": "address",
          "name": "to",
          "type": "address"
        },
        {
          "indexed": false,
          "internalType": "uint256",
          "name": "value",
          "type": "uint256"
        }
      ],
      "name": "Transfer",
      "type": "event"
    },
    {
      "inputs": [
        {
          "internalType": "address",
          "name": "to",
          "type": "address"
        },
        {
          "internalType": "uint256",
          "name": "amount",
          "type": "uint256"
        },
        {
          "internalType": "bytes32",
          "name": "storageRoot",
          "type": "bytes32"
        },
        {
          "internalType": "bytes32",
          "name": "nullifierKey",
          "type": "bytes32"
        },
        {
          "internalType": "bytes32",
          "name": "nullifierValue",
          "type": "bytes32"
        }
      ],
      "name": "_formatPublicRemintInputs",
      "outputs": [
        {
          "internalType": "bytes32[]",
          "name": "",
          "type": "bytes32[]"
        }
      ],
      "stateMutability": "pure",
      "type": "function"
    },
    {
      "inputs": [
        {
          "internalType": "bytes32",
          "name": "storageRoot",
          "type": "bytes32"
        },
        {
          "internalType": "bytes32",
          "name": "blockHash",
          "type": "bytes32"
        },
        {
          "internalType": "address",
          "name": "contractAddress",
          "type": "address"
        }
      ],
      "name": "_formatPublicStorageRootInputs",
      "outputs": [
        {
          "internalType": "bytes32[]",
          "name": "",
          "type": "bytes32[]"
        }
      ],
      "stateMutability": "pure",
      "type": "function"
    },
    {
      "inputs": [
        {
          "internalType": "address",
          "name": "owner",
          "type": "address"
        },
        {
          "internalType": "address",
          "name": "spender",
          "type": "address"
        }
      ],
      "name": "allowance",
      "outputs": [
        {
          "internalType": "uint256",
          "name": "",
          "type": "uint256"
        }
      ],
      "stateMutability": "view",
      "type": "function"
    },
    {
      "inputs": [
        {
          "internalType": "address",
          "name": "spender",
          "type": "address"
        },
        {
          "internalType": "uint256",
          "name": "value",
          "type": "uint256"
        }
      ],
      "name": "approve",
      "outputs": [
        {
          "internalType": "bool",
          "name": "",
          "type": "bool"
        }
      ],
      "stateMutability": "nonpayable",
      "type": "function"
    },
    {
      "inputs": [
        {
          "internalType": "address",
          "name": "account",
          "type": "address"
        }
      ],
      "name": "balanceOf",
      "outputs": [
        {
          "internalType": "uint256",
          "name": "",
          "type": "uint256"
        }
      ],
      "stateMutability": "view",
      "type": "function"
    },
    {
      "inputs": [],
      "name": "decimals",
      "outputs": [
        {
          "internalType": "uint8",
          "name": "",
          "type": "uint8"
        }
      ],
      "stateMutability": "view",
      "type": "function"
    },
    {
      "inputs": [
        {
          "internalType": "address",
          "name": "to",
          "type": "address"
        },
        {
          "internalType": "uint256",
          "name": "amount",
          "type": "uint256"
        }
      ],
      "name": "mint",
      "outputs": [],
      "stateMutability": "nonpayable",
      "type": "function"
    },
    {
      "inputs": [],
      "name": "name",
      "outputs": [
        {
          "internalType": "string",
          "name": "",
          "type": "string"
        }
      ],
      "stateMutability": "view",
      "type": "function"
    },
    {
      "inputs": [],
      "name": "owner",
      "outputs": [
        {
          "internalType": "address",
          "name": "",
          "type": "address"
        }
      ],
      "stateMutability": "view",
      "type": "function"
    },
    {
      "inputs": [
        {
          "internalType": "bytes32",
          "name": "",
          "type": "bytes32"
        }
      ],
      "name": "partialNullifiers",
      "outputs": [
        {
          "internalType": "bytes32",
          "name": "",
          "type": "bytes32"
        }
      ],
      "stateMutability": "view",
      "type": "function"
    },
    {
      "inputs": [
        {
          "internalType": "address",
          "name": "to",
          "type": "address"
        },
        {
          "internalType": "uint256",
          "name": "amount",
          "type": "uint256"
        },
        {
          "internalType": "uint256",
          "name": "blockNum",
          "type": "uint256"
        },
        {
          "internalType": "bytes32",
          "name": "nullifierKey",
          "type": "bytes32"
        },
        {
          "internalType": "bytes32",
          "name": "nullifierValue",
          "type": "bytes32"
        },
        {
          "internalType": "bytes",
          "name": "snarkProof",
          "type": "bytes"
        }
      ],
      "name": "reMint",
      "outputs": [],
      "stateMutability": "nonpayable",
      "type": "function"
    },
    {
      "inputs": [
        {
          "internalType": "bytes32",
          "name": "",
          "type": "bytes32"
        }
      ],
      "name": "reMintAmounts",
      "outputs": [
        {
          "internalType": "uint256",
          "name": "",
          "type": "uint256"
        }
      ],
      "stateMutability": "view",
      "type": "function"
    },
    {
      "inputs": [],
      "name": "remintVerifier",
      "outputs": [
        {
          "internalType": "address",
          "name": "",
          "type": "address"
        }
      ],
      "stateMutability": "view",
      "type": "function"
    },
    {
      "inputs": [],
      "name": "renounceOwnership",
      "outputs": [],
      "stateMutability": "nonpayable",
      "type": "function"
    },
    {
      "inputs": [
        {
          "internalType": "bytes32",
          "name": "storageRoot",
          "type": "bytes32"
        },
        {
          "internalType": "uint256",
          "name": "blockNum",
          "type": "uint256"
        },
        {
          "internalType": "bytes",
          "name": "snarkProof",
          "type": "bytes"
        }
      ],
      "name": "setStorageRoot",
      "outputs": [],
      "stateMutability": "nonpayable",
      "type": "function"
    },
    {
      "inputs": [
        {
          "internalType": "bytes32",
          "name": "storageRoot",
          "type": "bytes32"
        },
        {
          "internalType": "uint256",
          "name": "blockNum",
          "type": "uint256"
        }
      ],
      "name": "setTrustedStorageRoot",
      "outputs": [],
      "stateMutability": "nonpayable",
      "type": "function"
    },
    {
      "inputs": [
        {
          "internalType": "address",
          "name": "_storageRootVerifier",
          "type": "address"
        },
        {
          "internalType": "address",
          "name": "_remintVerifier",
          "type": "address"
        }
      ],
      "name": "setVerifiers",
      "outputs": [],
      "stateMutability": "nonpayable",
      "type": "function"
    },
    {
      "inputs": [],
      "name": "storageRootVerifier",
      "outputs": [
        {
          "internalType": "address",
          "name": "",
          "type": "address"
        }
      ],
      "stateMutability": "view",
      "type": "function"
    },
    {
      "inputs": [
        {
          "internalType": "uint256",
          "name": "",
          "type": "uint256"
        }
      ],
      "name": "storageRoots",
      "outputs": [
        {
          "internalType": "bytes32",
          "name": "",
          "type": "bytes32"
        }
      ],
      "stateMutability": "view",
      "type": "function"
    },
    {
      "inputs": [],
      "name": "symbol",
      "outputs": [
        {
          "internalType": "string",
          "name": "",
          "type": "string"
        }
      ],
      "stateMutability": "view",
      "type": "function"
    },
    {
      "inputs": [],
      "name": "totalSupply",
      "outputs": [
        {
          "internalType": "uint256",
          "name": "",
          "type": "uint256"
        }
      ],
      "stateMutability": "view",
      "type": "function"
    },
    {
      "inputs": [
        {
          "internalType": "address",
          "name": "to",
          "type": "address"
        },
        {
          "internalType": "uint256",
          "name": "value",
          "type": "uint256"
        }
      ],
      "name": "transfer",
      "outputs": [
        {
          "internalType": "bool",
          "name": "",
          "type": "bool"
        }
      ],
      "stateMutability": "nonpayable",
      "type": "function"
    },
    {
      "inputs": [
        {
          "internalType": "address",
          "name": "from",
          "type": "address"
        },
        {
          "internalType": "address",
          "name": "to",
          "type": "address"
        },
        {
          "internalType": "uint256",
          "name": "value",
          "type": "uint256"
        }
      ],
      "name": "transferFrom",
      "outputs": [
        {
          "internalType": "bool",
          "name": "",
          "type": "bool"
        }
      ],
      "stateMutability": "nonpayable",
      "type": "function"
    },
    {
      "inputs": [
        {
          "internalType": "address",
          "name": "newOwner",
          "type": "address"
        }
      ],
      "name": "transferOwnership",
      "outputs": [],
      "stateMutability": "nonpayable",
      "type": "function"
    }
  ],
  "bytecode": "0x608060405234801561000f575f5ffd5b5033604051806040016040528060118152602001703d35bbb7b936b437b632b996ba37b5b2b760791b8152506040518060400160405280600581526020016415d493521360da1b8152508160039081610068919061019d565b506004610075828261019d565b5050506001600160a01b0381166100a557604051631e4fbdf760e01b81525f600482015260240160405180910390fd5b6100ae816100b4565b50610257565b600580546001600160a01b038381166001600160a01b0319831681179093556040519116919082907f8be0079c531659141344cd1fd0a4f28419497f9722a3daafe3b4186f6b6457e0905f90a35050565b634e487b7160e01b5f52604160045260245ffd5b600181811c9082168061012d57607f821691505b60208210810361014b57634e487b7160e01b5f52602260045260245ffd5b50919050565b601f82111561019857805f5260205f20601f840160051c810160208510156101765750805b601f840160051c820191505b81811015610195575f8155600101610182565b50505b505050565b81516001600160401b038111156101b6576101b6610105565b6101ca816101c48454610119565b84610151565b6020601f8211600181146101fc575f83156101e55750848201515b5f19600385901b1c1916600184901b178455610195565b5f84815260208120601f198516915b8281101561022b578785015182556020948501946001909201910161020b565b508482101561024857868401515f19600387901b60f8161c191681555b50505050600190811b01905550565b611256806102645f395ff3fe608060405234801561000f575f5ffd5b5060043610610153575f3560e01c806370a08231116100bf578063cb47a2c011610079578063cb47a2c0146102fb578063dd62ed3e14610319578063e6acb62e14610351578063e81c00c314610364578063f2fde38b14610377578063f658cdfb1461038a575f5ffd5b806370a082311461028c578063715018a6146102b45780637c154d40146102bc5780638da5cb5b146102cf57806395d89b41146102e0578063a9059cbb146102e8575f5ffd5b8063313ce56711610110578063313ce567146102045780633b091b48146102135780633e7da8ab1461022857806340c10f191461023b578063610ebfe21461024e5780636f02c94b1461026d575f5ffd5b806303bfa9d41461015757806306fdde0314610187578063095ea7b31461019c57806318160ddd146101bf57806323b872dd146101d15780632f16463d146101e4575b5f5ffd5b60085461016a906001600160a01b031681565b6040516001600160a01b0390911681526020015b60405180910390f35b61018f6103a9565b60405161017e9190610e20565b6101af6101aa366004610e86565b610439565b604051901515815260200161017e565b6002545b60405190815260200161017e565b6101af6101df366004610eae565b610452565b6101f76101f2366004610ee8565b610475565b60405161017e9190610f54565b6040516012815260200161017e565b610226610221366004610fb2565b610572565b005b6101f7610236366004611027565b61059f565b610226610249366004610e86565b61067c565b6101c361025c366004611065565b600a6020525f908152604090205481565b6101c361027b366004611065565b60076020525f908152604090205481565b6101c361029a36600461107c565b6001600160a01b03165f9081526020819052604090205490565b61022661068a565b6102266102ca366004611095565b61069d565b6005546001600160a01b031661016a565b61018f61078a565b6101af6102f6366004610e86565b610799565b6102266103093660046110c6565b5f908152600a6020526040902055565b6101c3610327366004611095565b6001600160a01b039182165f90815260016020908152604080832093909416825291909152205490565b61022661035f3660046110e6565b6107a6565b60095461016a906001600160a01b031681565b61022661038536600461107c565b610897565b6101c3610398366004611065565b60066020525f908152604090205481565b6060600380546103b890611135565b80601f01602080910402602001604051908101604052809291908181526020018280546103e490611135565b801561042f5780601f106104065761010080835404028352916020019161042f565b820191905f5260205f20905b81548152906001019060200180831161041257829003601f168201915b5050505050905090565b5f336104468185856108d4565b60019150505b92915050565b5f3361045f8582856108e6565b61046a858585610961565b506001949350505050565b60408051604180825261084082019092526060915f9190602082016108208036833701905050905084815f815181106104b0576104b061116d565b6020908102919091010152606083901b60015b602181101561051357856104d8600183611195565b602081106104e8576104e861116d565b845191901a908490839081106105005761050061116d565b60209081029190910101526001016104c3565b5060215b6035811015610567578161052c602183611195565b6014811061053c5761053c61116d565b845191901a908490839081106105545761055461116d565b6020908102919091010152600101610517565b509095945050505050565b6105968787878787878760085f9054906101000a90046001600160a01b03166109be565b50505050505050565b60408051600580825260c0820190925260609186916001600160a01b038916915f91906020820160a08036833701905050905081815f815181106105e5576105e561116d565b60200260200101818152505082816001815181106106055761060561116d565b60200260200101818152505084816002815181106106255761062561116d565b60200260200101818152505085816003815181106106455761064561116d565b60200260200101818152505086816004815181106106655761066561116d565b602090810291909101015298975050505050505050565b6106868282610b76565b5050565b610692610baa565b61069b5f610bd7565b565b6106a5610baa565b6008546001600160a01b0316156107035760405162461bcd60e51b815260206004820152601d60248201527f766572696669657220697320616c7265616479207365742073696c6c7900000060448201526064015b60405180910390fd5b6009546001600160a01b03161561075c5760405162461bcd60e51b815260206004820152601d60248201527f766572696669657220697320616c7265616479207365742073696c6c7900000060448201526064016106fa565b600980546001600160a01b039384166001600160a01b03199182161790915560088054929093169116179055565b6060600480546103b890611135565b5f33610446818585610961565b82405f6107b4868330610475565b600954604051633a94343960e21b81529192506001600160a01b03169063ea50d0e4906107e9908790879086906004016111a8565b602060405180830381865afa158015610804573d5f5f3e3d5ffd5b505050506040513d601f19601f8201168201806040525081019061082891906111ee565b6108455760405163439cc0cd60e01b815260040160405180910390fd5b5f858152600a602052604090819020879055517ffa8ed523c86185eb7bf97da8ff308810e778824b3620b2b88297a5c60bd62786906108879087815260200190565b60405180910390a1505050505050565b61089f610baa565b6001600160a01b0381166108c857604051631e4fbdf760e01b81525f60048201526024016106fa565b6108d181610bd7565b50565b6108e18383836001610c28565b505050565b6001600160a01b038381165f908152600160209081526040808320938616835292905220545f19811461095b578181101561094d57604051637dc7a0d960e11b81526001600160a01b038416600482015260248101829052604481018390526064016106fa565b61095b84848484035f610c28565b50505050565b6001600160a01b03831661098a57604051634b637e8f60e11b81525f60048201526024016106fa565b6001600160a01b0382166109b35760405163ec442f0560e01b81525f60048201526024016106fa565b6108e1838383610cfa565b5f8581526006602052604090205415610a195760405162461bcd60e51b815260206004820152601760248201527f6e756c6c696669657220616c726561647920657869737400000000000000000060448201526064016106fa565b5f858152600660209081526040808320879055888352600a90915281205490610a458a8a848a8a61059f565b604051633a94343960e21b81529091506001600160a01b0384169063ea50d0e490610a78908890889086906004016111a8565b602060405180830381865afa158015610a93573d5f5f3e3d5ffd5b505050506040513d601f19601f82011682018060405250810190610ab791906111ee565b610ad45760405163439cc0cd60e01b815260040160405180910390fd5b6001600160a01b038a165f8181526020818152604080832080548e019055518c81527fddf252ad1be2c89b69c2b068fc378daa952ba7f163c4a11628f55a4df523b3ef910160405180910390a3867fc4b38c5db744c4baba20385f27df9c9aafc7781c73c43033246f144a2112e9908a604051610b5391815260200190565b60405180910390a25050505f938452505060076020525060409020919091555050565b6001600160a01b038216610b9f5760405163ec442f0560e01b81525f60048201526024016106fa565b6106865f8383610cfa565b6005546001600160a01b0316331461069b5760405163118cdaa760e01b81523360048201526024016106fa565b600580546001600160a01b038381166001600160a01b0319831681179093556040519116919082907f8be0079c531659141344cd1fd0a4f28419497f9722a3daafe3b4186f6b6457e0905f90a35050565b6001600160a01b038416610c515760405163e602df0560e01b81525f60048201526024016106fa565b6001600160a01b038316610c7a57604051634a1406b160e11b81525f60048201526024016106fa565b6001600160a01b038085165f908152600160209081526040808320938716835292905220829055801561095b57826001600160a01b0316846001600160a01b03167f8c5be1e5ebec7d5bd14f71427d1e84f3dd0314c0f7b2291e5b200ac8c7c3b92584604051610cec91815260200190565b60405180910390a350505050565b6001600160a01b038316610d24578060025f828254610d19919061120d565b90915550610d949050565b6001600160a01b0383165f9081526020819052604090205481811015610d765760405163391434e360e21b81526001600160a01b038516600482015260248101829052604481018390526064016106fa565b6001600160a01b0384165f9081526020819052604090209082900390555b6001600160a01b038216610db057600280548290039055610dce565b6001600160a01b0382165f9081526020819052604090208054820190555b816001600160a01b0316836001600160a01b03167fddf252ad1be2c89b69c2b068fc378daa952ba7f163c4a11628f55a4df523b3ef83604051610e1391815260200190565b60405180910390a3505050565b602081525f82518060208401525f5b81811015610e4c5760208186018101516040868401015201610e2f565b505f604082850101526040601f19601f83011684010191505092915050565b80356001600160a01b0381168114610e81575f5ffd5b919050565b5f5f60408385031215610e97575f5ffd5b610ea083610e6b565b946020939093013593505050565b5f5f5f60608486031215610ec0575f5ffd5b610ec984610e6b565b9250610ed760208501610e6b565b929592945050506040919091013590565b5f5f5f60608486031215610efa575f5ffd5b8335925060208401359150610f1160408501610e6b565b90509250925092565b5f8151808452602084019350602083015f5b82811015610f4a578151865260209586019590910190600101610f2c565b5093949350505050565b602081525f610f666020830184610f1a565b9392505050565b5f5f83601f840112610f7d575f5ffd5b50813567ffffffffffffffff811115610f94575f5ffd5b602083019150836020828501011115610fab575f5ffd5b9250929050565b5f5f5f5f5f5f5f60c0888a031215610fc8575f5ffd5b610fd188610e6b565b96506020880135955060408801359450606088013593506080880135925060a088013567ffffffffffffffff811115611008575f5ffd5b6110148a828b01610f6d565b989b979a50959850939692959293505050565b5f5f5f5f5f60a0868803121561103b575f5ffd5b61104486610e6b565b97602087013597506040870135966060810135965060800135945092505050565b5f60208284031215611075575f5ffd5b5035919050565b5f6020828403121561108c575f5ffd5b610f6682610e6b565b5f5f604083850312156110a6575f5ffd5b6110af83610e6b565b91506110bd60208401610e6b565b90509250929050565b5f5f604083850312156110d7575f5ffd5b50508035926020909101359150565b5f5f5f5f606085870312156110f9575f5ffd5b8435935060208501359250604085013567ffffffffffffffff81111561111d575f5ffd5b61112987828801610f6d565b95989497509550505050565b600181811c9082168061114957607f821691505b60208210810361116757634e487b7160e01b5f52602260045260245ffd5b50919050565b634e487b7160e01b5f52603260045260245ffd5b634e487b7160e01b5f52601160045260245ffd5b8181038181111561044c5761044c611181565b60408152826040820152828460608301375f606084830101525f601f19601f850116820160608382030160208401526111e46060820185610f1a565b9695505050505050565b5f602082840312156111fe575f5ffd5b81518015158114610f66575f5ffd5b8082018082111561044c5761044c61118156fea26469706673582212205bd53921643fe28fddf8a33cc9ef8a51211ed8c4f734aad8079c237042d4b8c464736f6c634300081c0033",
  "linkReferences": {},
  "deployedLinkReferences": {}
}