{
  "_format": "hh-sol-artifact-1",
  "contractName": "Token",
  "sourceName": "contracts/Token.sol",
  "abi": [
    {
      "inputs": [],
      "stateMutability": "nonpayable",
      "type": "constructor"
    },
    {
      "inputs": [
        {
          "internalType": "address",
          "name": "spender",
          "type": "address"
        },
        {
          "internalType": "uint256",
          "name": "allowance",
          "type": "uint256"
        },
        {
          "internalType": "uint256",
          "name": "needed",
          "type": "uint256"
        }
      ],
      "name": "ERC20InsufficientAllowance",
      "type": "error"
    },
    {
      "inputs": [
        {
          "internalType": "address",
          "name": "sender",
          "type": "address"
        },
        {
          "internalType": "uint256",
          "name": "balance",
          "type": "uint256"
        },
        {
          "internalType": "uint256",
          "name": "needed",
          "type": "uint256"
        }
      ],
      "name": "ERC20InsufficientBalance",
      "type": "error"
    },
    {
      "inputs": [
        {
          "internalType": "address",
          "name": "approver",
          "type": "address"
        }
      ],
      "name": "ERC20InvalidApprover",
      "type": "error"
    },
    {
      "inputs": [
        {
          "internalType": "address",
          "name": "receiver",
          "type": "address"
        }
      ],
      "name": "ERC20InvalidReceiver",
      "type": "error"
    },
    {
      "inputs": [
        {
          "internalType": "address",
          "name": "sender",
          "type": "address"
        }
      ],
      "name": "ERC20InvalidSender",
      "type": "error"
    },
    {
      "inputs": [
        {
          "internalType": "address",
          "name": "spender",
          "type": "address"
        }
      ],
      "name": "ERC20InvalidSpender",
      "type": "error"
    },
    {
      "inputs": [
        {
          "internalType": "address",
          "name": "owner",
          "type": "address"
        }
      ],
      "name": "OwnableInvalidOwner",
      "type": "error"
    },
    {
      "inputs": [
        {
          "internalType": "address",
          "name": "account",
          "type": "address"
        }
      ],
      "name": "OwnableUnauthorizedAccount",
      "type": "error"
    },
    {
      "inputs": [],
      "name": "VerificationFailed",
      "type": "error"
    },
    {
      "anonymous": false,
      "inputs": [
        {
          "indexed": true,
          "internalType": "address",
          "name": "owner",
          "type": "address"
        },
        {
          "indexed": true,
          "internalType": "address",
          "name": "spender",
          "type": "address"
        },
        {
          "indexed": false,
          "internalType": "uint256",
          "name": "value",
          "type": "uint256"
        }
      ],
      "name": "Approval",
      "type": "event"
    },
    {
      "anonymous": false,
      "inputs": [
        {
          "indexed": true,
          "internalType": "address",
          "name": "previousOwner",
          "type": "address"
        },
        {
          "indexed": true,
          "internalType": "address",
          "name": "newOwner",
          "type": "address"
        }
      ],
      "name": "OwnershipTransferred",
      "type": "event"
    },
    {
      "anonymous": false,
      "inputs": [
        {
          "indexed": true,
          "internalType": "bytes32",
          "name": "nullifierKey",
          "type": "bytes32"
        },
        {
          "indexed": false,
          "internalType": "uint256",
          "name": "amount",
          "type": "uint256"
        }
      ],
      "name": "Remint",
      "type": "event"
    },
    {
      "anonymous": false,
      "inputs": [
        {
          "indexed": false,
          "internalType": "uint256",
          "name": "blockNumber",
          "type": "uint256"
        }
      ],
      "name": "StorageRootAdded",
      "type": "event"
    },
    {
      "anonymous": false,
      "inputs": [
        {
          "indexed": true,
          "internalType": "address",
          "name": "from",
          "type": "address"
        },
        {
          "indexed": true,
          "internalType": "address",
          "name": "to",
          "type": "address"
        },
        {
          "indexed": false,
          "internalType": "uint256",
          "name": "value",
          "type": "uint256"
        }
      ],
      "name": "Transfer",
      "type": "event"
    },
    {
      "inputs": [
        {
          "internalType": "address",
          "name": "to",
          "type": "address"
        },
        {
          "internalType": "uint256",
          "name": "amount",
          "type": "uint256"
        },
        {
          "internalType": "bytes32",
          "name": "storageRoot",
          "type": "bytes32"
        },
        {
          "internalType": "bytes32",
          "name": "nullifierKey",
          "type": "bytes32"
        },
        {
          "internalType": "bytes32",
          "name": "nullifierValue",
          "type": "bytes32"
        }
      ],
      "name": "_formatPublicRemintInputs",
      "outputs": [
        {
          "internalType": "bytes32[]",
          "name": "",
          "type": "bytes32[]"
        }
      ],
      "stateMutability": "pure",
      "type": "function"
    },
    {
      "inputs": [
        {
          "internalType": "bytes32",
          "name": "storageRoot",
          "type": "bytes32"
        },
        {
          "internalType": "bytes32",
          "name": "blockHash",
          "type": "bytes32"
        },
        {
          "internalType": "address",
          "name": "contractAddress",
          "type": "address"
        }
      ],
      "name": "_formatPublicStorageRootInputs",
      "outputs": [
        {
          "internalType": "bytes32[]",
          "name": "",
          "type": "bytes32[]"
        }
      ],
      "stateMutability": "pure",
      "type": "function"
    },
    {
      "inputs": [
        {
          "internalType": "address",
          "name": "owner",
          "type": "address"
        },
        {
          "internalType": "address",
          "name": "spender",
          "type": "address"
        }
      ],
      "name": "allowance",
      "outputs": [
        {
          "internalType": "uint256",
          "name": "",
          "type": "uint256"
        }
      ],
      "stateMutability": "view",
      "type": "function"
    },
    {
      "inputs": [
        {
          "internalType": "address",
          "name": "spender",
          "type": "address"
        },
        {
          "internalType": "uint256",
          "name": "value",
          "type": "uint256"
        }
      ],
      "name": "approve",
      "outputs": [
        {
          "internalType": "bool",
          "name": "",
          "type": "bool"
        }
      ],
      "stateMutability": "nonpayable",
      "type": "function"
    },
    {
      "inputs": [
        {
          "internalType": "address",
          "name": "account",
          "type": "address"
        }
      ],
      "name": "balanceOf",
      "outputs": [
        {
          "internalType": "uint256",
          "name": "",
          "type": "uint256"
        }
      ],
      "stateMutability": "view",
      "type": "function"
    },
    {
      "inputs": [],
      "name": "decimals",
      "outputs": [
        {
          "internalType": "uint8",
          "name": "",
          "type": "uint8"
        }
      ],
      "stateMutability": "view",
      "type": "function"
    },
    {
      "inputs": [
        {
          "internalType": "address",
          "name": "to",
          "type": "address"
        },
        {
          "internalType": "uint256",
          "name": "amount",
          "type": "uint256"
        }
      ],
      "name": "mint",
      "outputs": [],
      "stateMutability": "nonpayable",
      "type": "function"
    },
    {
      "inputs": [],
      "name": "name",
      "outputs": [
        {
          "internalType": "string",
          "name": "",
          "type": "string"
        }
      ],
      "stateMutability": "view",
      "type": "function"
    },
    {
      "inputs": [],
      "name": "owner",
      "outputs": [
        {
          "internalType": "address",
          "name": "",
          "type": "address"
        }
      ],
      "stateMutability": "view",
      "type": "function"
    },
    {
      "inputs": [
        {
          "internalType": "bytes32",
          "name": "",
          "type": "bytes32"
        }
      ],
      "name": "partialNullifiers",
      "outputs": [
        {
          "internalType": "bytes32",
          "name": "",
          "type": "bytes32"
        }
      ],
      "stateMutability": "view",
      "type": "function"
    },
    {
      "inputs": [
        {
          "internalType": "address",
          "name": "to",
          "type": "address"
        },
        {
          "internalType": "uint256",
          "name": "amount",
          "type": "uint256"
        },
        {
          "internalType": "uint256",
          "name": "blockNum",
          "type": "uint256"
        },
        {
          "internalType": "bytes32",
          "name": "nullifierKey",
          "type": "bytes32"
        },
        {
          "internalType": "bytes32",
          "name": "nullifierValue",
          "type": "bytes32"
        },
        {
          "internalType": "bytes",
          "name": "snarkProof",
          "type": "bytes"
        }
      ],
      "name": "reMint",
      "outputs": [],
      "stateMutability": "nonpayable",
      "type": "function"
    },
    {
      "inputs": [],
      "name": "remintVerifier",
      "outputs": [
        {
          "internalType": "address",
          "name": "",
          "type": "address"
        }
      ],
      "stateMutability": "view",
      "type": "function"
    },
    {
      "inputs": [],
      "name": "renounceOwnership",
      "outputs": [],
      "stateMutability": "nonpayable",
      "type": "function"
    },
    {
      "inputs": [
        {
          "internalType": "bytes32",
          "name": "storageRoot",
          "type": "bytes32"
        },
        {
          "internalType": "uint256",
          "name": "blockNum",
          "type": "uint256"
        },
        {
          "internalType": "bytes",
          "name": "snarkProof",
          "type": "bytes"
        }
      ],
      "name": "setStorageRoot",
      "outputs": [],
      "stateMutability": "nonpayable",
      "type": "function"
    },
    {
      "inputs": [
        {
          "internalType": "bytes32",
          "name": "storageRoot",
          "type": "bytes32"
        },
        {
          "internalType": "uint256",
          "name": "blockNum",
          "type": "uint256"
        }
      ],
      "name": "setTrustedStorageRoot",
      "outputs": [],
      "stateMutability": "nonpayable",
      "type": "function"
    },
    {
      "inputs": [
        {
          "internalType": "address",
          "name": "_storageRootVerifier",
          "type": "address"
        },
        {
          "internalType": "address",
          "name": "_remintVerifier",
          "type": "address"
        }
      ],
      "name": "setVerifiers",
      "outputs": [],
      "stateMutability": "nonpayable",
      "type": "function"
    },
    {
      "inputs": [],
      "name": "storageRootVerifier",
      "outputs": [
        {
          "internalType": "address",
          "name": "",
          "type": "address"
        }
      ],
      "stateMutability": "view",
      "type": "function"
    },
    {
      "inputs": [
        {
          "internalType": "uint256",
          "name": "",
          "type": "uint256"
        }
      ],
      "name": "storageRoots",
      "outputs": [
        {
          "internalType": "bytes32",
          "name": "",
          "type": "bytes32"
        }
      ],
      "stateMutability": "view",
      "type": "function"
    },
    {
      "inputs": [],
      "name": "symbol",
      "outputs": [
        {
          "internalType": "string",
          "name": "",
          "type": "string"
        }
      ],
      "stateMutability": "view",
      "type": "function"
    },
    {
      "inputs": [],
      "name": "totalSupply",
      "outputs": [
        {
          "internalType": "uint256",
          "name": "",
          "type": "uint256"
        }
      ],
      "stateMutability": "view",
      "type": "function"
    },
    {
      "inputs": [
        {
          "internalType": "address",
          "name": "to",
          "type": "address"
        },
        {
          "internalType": "uint256",
          "name": "value",
          "type": "uint256"
        }
      ],
      "name": "transfer",
      "outputs": [
        {
          "internalType": "bool",
          "name": "",
          "type": "bool"
        }
      ],
      "stateMutability": "nonpayable",
      "type": "function"
    },
    {
      "inputs": [
        {
          "internalType": "address",
          "name": "from",
          "type": "address"
        },
        {
          "internalType": "address",
          "name": "to",
          "type": "address"
        },
        {
          "internalType": "uint256",
          "name": "value",
          "type": "uint256"
        }
      ],
      "name": "transferFrom",
      "outputs": [
        {
          "internalType": "bool",
          "name": "",
          "type": "bool"
        }
      ],
      "stateMutability": "nonpayable",
      "type": "function"
    },
    {
      "inputs": [
        {
          "internalType": "address",
          "name": "newOwner",
          "type": "address"
        }
      ],
      "name": "transferOwnership",
      "outputs": [],
      "stateMutability": "nonpayable",
      "type": "function"
    }
  ],
  "bytecode": "0x608060405234801561000f575f5ffd5b5033604051806040016040528060118152602001703d35bbb7b936b437b632b996ba37b5b2b760791b8152506040518060400160405280600581526020016415d493521360da1b8152508160039081610068919061019d565b506004610075828261019d565b5050506001600160a01b0381166100a557604051631e4fbdf760e01b81525f600482015260240160405180910390fd5b6100ae816100b4565b50610257565b600580546001600160a01b038381166001600160a01b0319831681179093556040519116919082907f8be0079c531659141344cd1fd0a4f28419497f9722a3daafe3b4186f6b6457e0905f90a35050565b634e487b7160e01b5f52604160045260245ffd5b600181811c9082168061012d57607f821691505b60208210810361014b57634e487b7160e01b5f52602260045260245ffd5b50919050565b601f82111561019857805f5260205f20601f840160051c810160208510156101765750805b601f840160051c820191505b81811015610195575f8155600101610182565b50505b505050565b81516001600160401b038111156101b6576101b6610105565b6101ca816101c48454610119565b84610151565b6020601f8211600181146101fc575f83156101e55750848201515b5f19600385901b1c1916600184901b178455610195565b5f84815260208120601f198516915b8281101561022b578785015182556020948501946001909201910161020b565b508482101561024857868401515f19600387901b60f8161c191681555b50505050600190811b01905550565b61121d806102645f395ff3fe608060405234801561000f575f5ffd5b5060043610610148575f3560e01c806370a08231116100bf578063cb47a2c011610079578063cb47a2c0146102d1578063dd62ed3e146102ef578063e6acb62e14610327578063e81c00c31461033a578063f2fde38b1461034d578063f658cdfb14610360575f5ffd5b806370a0823114610262578063715018a61461028a5780637c154d40146102925780638da5cb5b146102a557806395d89b41146102b6578063a9059cbb146102be575f5ffd5b80632f16463d116101105780632f16463d146101d9578063313ce567146101f95780633b091b48146102085780633e7da8ab1461021d57806340c10f1914610230578063610ebfe214610243575f5ffd5b806303bfa9d41461014c57806306fdde031461017c578063095ea7b31461019157806318160ddd146101b457806323b872dd146101c6575b5f5ffd5b60075461015f906001600160a01b031681565b6040516001600160a01b0390911681526020015b60405180910390f35b61018461037f565b6040516101739190610de7565b6101a461019f366004610e4d565b61040f565b6040519015158152602001610173565b6002545b604051908152602001610173565b6101a46101d4366004610e75565b610428565b6101ec6101e7366004610eaf565b61044b565b6040516101739190610f1b565b60405160128152602001610173565b61021b610216366004610f79565b610548565b005b6101ec61022b366004610fee565b610575565b61021b61023e366004610e4d565b610652565b6101b861025136600461102c565b60096020525f908152604090205481565b6101b8610270366004611043565b6001600160a01b03165f9081526020819052604090205490565b61021b610660565b61021b6102a036600461105c565b610673565b6005546001600160a01b031661015f565b610184610760565b6101a46102cc366004610e4d565b61076f565b61021b6102df36600461108d565b5f90815260096020526040902055565b6101b86102fd36600461105c565b6001600160a01b039182165f90815260016020908152604080832093909416825291909152205490565b61021b6103353660046110ad565b61077c565b60085461015f906001600160a01b031681565b61021b61035b366004611043565b61086d565b6101b861036e36600461102c565b60066020525f908152604090205481565b60606003805461038e906110fc565b80601f01602080910402602001604051908101604052809291908181526020018280546103ba906110fc565b80156104055780601f106103dc57610100808354040283529160200191610405565b820191905f5260205f20905b8154815290600101906020018083116103e857829003601f168201915b5050505050905090565b5f3361041c8185856108aa565b60019150505b92915050565b5f336104358582856108bc565b610440858585610937565b506001949350505050565b60408051604180825261084082019092526060915f9190602082016108208036833701905050905084815f8151811061048657610486611134565b6020908102919091010152606083901b60015b60218110156104e957856104ae60018361115c565b602081106104be576104be611134565b845191901a908490839081106104d6576104d6611134565b6020908102919091010152600101610499565b5060215b603581101561053d578161050260218361115c565b6014811061051257610512611134565b845191901a9084908390811061052a5761052a611134565b60209081029190910101526001016104ed565b509095945050505050565b61056c8787878787878760075f9054906101000a90046001600160a01b0316610994565b50505050505050565b60408051600580825260c0820190925260609186916001600160a01b038916915f91906020820160a08036833701905050905081815f815181106105bb576105bb611134565b60200260200101818152505082816001815181106105db576105db611134565b60200260200101818152505084816002815181106105fb576105fb611134565b602002602001018181525050858160038151811061061b5761061b611134565b602002602001018181525050868160048151811061063b5761063b611134565b602090810291909101015298975050505050505050565b61065c8282610b3d565b5050565b610668610b71565b6106715f610b9e565b565b61067b610b71565b6007546001600160a01b0316156106d95760405162461bcd60e51b815260206004820152601d60248201527f766572696669657220697320616c7265616479207365742073696c6c7900000060448201526064015b60405180910390fd5b6008546001600160a01b0316156107325760405162461bcd60e51b815260206004820152601d60248201527f766572696669657220697320616c7265616479207365742073696c6c7900000060448201526064016106d0565b600880546001600160a01b039384166001600160a01b03199182161790915560078054929093169116179055565b60606004805461038e906110fc565b5f3361041c818585610937565b82405f61078a86833061044b565b600854604051633a94343960e21b81529192506001600160a01b03169063ea50d0e4906107bf9087908790869060040161116f565b602060405180830381865afa1580156107da573d5f5f3e3d5ffd5b505050506040513d601f19601f820116820180604052508101906107fe91906111b5565b61081b5760405163439cc0cd60e01b815260040160405180910390fd5b5f8581526009602052604090819020879055517ffa8ed523c86185eb7bf97da8ff308810e778824b3620b2b88297a5c60bd627869061085d9087815260200190565b60405180910390a1505050505050565b610875610b71565b6001600160a01b03811661089e57604051631e4fbdf760e01b81525f60048201526024016106d0565b6108a781610b9e565b50565b6108b78383836001610bef565b505050565b6001600160a01b038381165f908152600160209081526040808320938616835292905220545f198114610931578181101561092357604051637dc7a0d960e11b81526001600160a01b038416600482015260248101829052604481018390526064016106d0565b61093184848484035f610bef565b50505050565b6001600160a01b03831661096057604051634b637e8f60e11b81525f60048201526024016106d0565b6001600160a01b0382166109895760405163ec442f0560e01b81525f60048201526024016106d0565b6108b7838383610cc1565b5f85815260066020526040902054156109ef5760405162461bcd60e51b815260206004820152601760248201527f6e756c6c696669657220616c726561647920657869737400000000000000000060448201526064016106d0565b5f858152600660209081526040808320879055888352600990915281205490610a1b8a8a848a8a610575565b604051633a94343960e21b81529091506001600160a01b0384169063ea50d0e490610a4e9088908890869060040161116f565b602060405180830381865afa158015610a69573d5f5f3e3d5ffd5b505050506040513d601f19601f82011682018060405250810190610a8d91906111b5565b610aaa5760405163439cc0cd60e01b815260040160405180910390fd5b6001600160a01b038a165f8181526020818152604080832080548e019055518c81527fddf252ad1be2c89b69c2b068fc378daa952ba7f163c4a11628f55a4df523b3ef910160405180910390a3867fc4b38c5db744c4baba20385f27df9c9aafc7781c73c43033246f144a2112e9908a604051610b2991815260200190565b60405180910390a250505050505050505050565b6001600160a01b038216610b665760405163ec442f0560e01b81525f60048201526024016106d0565b61065c5f8383610cc1565b6005546001600160a01b031633146106715760405163118cdaa760e01b81523360048201526024016106d0565b600580546001600160a01b038381166001600160a01b0319831681179093556040519116919082907f8be0079c531659141344cd1fd0a4f28419497f9722a3daafe3b4186f6b6457e0905f90a35050565b6001600160a01b038416610c185760405163e602df0560e01b81525f60048201526024016106d0565b6001600160a01b038316610c4157604051634a1406b160e11b81525f60048201526024016106d0565b6001600160a01b038085165f908152600160209081526040808320938716835292905220829055801561093157826001600160a01b0316846001600160a01b03167f8c5be1e5ebec7d5bd14f71427d1e84f3dd0314c0f7b2291e5b200ac8c7c3b92584604051610cb391815260200190565b60405180910390a350505050565b6001600160a01b038316610ceb578060025f828254610ce091906111d4565b90915550610d5b9050565b6001600160a01b0383165f9081526020819052604090205481811015610d3d5760405163391434e360e21b81526001600160a01b038516600482015260248101829052604481018390526064016106d0565b6001600160a01b0384165f9081526020819052604090209082900390555b6001600160a01b038216610d7757600280548290039055610d95565b6001600160a01b0382165f9081526020819052604090208054820190555b816001600160a01b0316836001600160a01b03167fddf252ad1be2c89b69c2b068fc378daa952ba7f163c4a11628f55a4df523b3ef83604051610dda91815260200190565b60405180910390a3505050565b602081525f82518060208401525f5b81811015610e135760208186018101516040868401015201610df6565b505f604082850101526040601f19601f83011684010191505092915050565b80356001600160a01b0381168114610e48575f5ffd5b919050565b5f5f60408385031215610e5e575f5ffd5b610e6783610e32565b946020939093013593505050565b5f5f5f60608486031215610e87575f5ffd5b610e9084610e32565b9250610e9e60208501610e32565b929592945050506040919091013590565b5f5f5f60608486031215610ec1575f5ffd5b8335925060208401359150610ed860408501610e32565b90509250925092565b5f8151808452602084019350602083015f5b82811015610f11578151865260209586019590910190600101610ef3565b5093949350505050565b602081525f610f2d6020830184610ee1565b9392505050565b5f5f83601f840112610f44575f5ffd5b50813567ffffffffffffffff811115610f5b575f5ffd5b602083019150836020828501011115610f72575f5ffd5b9250929050565b5f5f5f5f5f5f5f60c0888a031215610f8f575f5ffd5b610f9888610e32565b96506020880135955060408801359450606088013593506080880135925060a088013567ffffffffffffffff811115610fcf575f5ffd5b610fdb8a828b01610f34565b989b979a50959850939692959293505050565b5f5f5f5f5f60a08688031215611002575f5ffd5b61100b86610e32565b97602087013597506040870135966060810135965060800135945092505050565b5f6020828403121561103c575f5ffd5b5035919050565b5f60208284031215611053575f5ffd5b610f2d82610e32565b5f5f6040838503121561106d575f5ffd5b61107683610e32565b915061108460208401610e32565b90509250929050565b5f5f6040838503121561109e575f5ffd5b50508035926020909101359150565b5f5f5f5f606085870312156110c0575f5ffd5b8435935060208501359250604085013567ffffffffffffffff8111156110e4575f5ffd5b6110f087828801610f34565b95989497509550505050565b600181811c9082168061111057607f821691505b60208210810361112e57634e487b7160e01b5f52602260045260245ffd5b50919050565b634e487b7160e01b5f52603260045260245ffd5b634e487b7160e01b5f52601160045260245ffd5b8181038181111561042257610422611148565b60408152826040820152828460608301375f606084830101525f601f19601f850116820160608382030160208401526111ab6060820185610ee1565b9695505050505050565b5f602082840312156111c5575f5ffd5b81518015158114610f2d575f5ffd5b808201808211156104225761042261114856fea2646970667358221220ee81b915bcebb58c15a377ff3b40157be0241ed7f61c81ff2d7d292fe583831564736f6c634300081c0033",
  "linkReferences": {},
  "deployedLinkReferences": {}
}