{
  "_format": "hh-sol-artifact-1",
  "contractName": "Token",
  "sourceName": "contracts/Token.sol",
  "abi": [
    {
      "inputs": [],
      "stateMutability": "nonpayable",
      "type": "constructor"
    },
    {
      "inputs": [
        {
          "internalType": "address",
          "name": "spender",
          "type": "address"
        },
        {
          "internalType": "uint256",
          "name": "allowance",
          "type": "uint256"
        },
        {
          "internalType": "uint256",
          "name": "needed",
          "type": "uint256"
        }
      ],
      "name": "ERC20InsufficientAllowance",
      "type": "error"
    },
    {
      "inputs": [
        {
          "internalType": "address",
          "name": "sender",
          "type": "address"
        },
        {
          "internalType": "uint256",
          "name": "balance",
          "type": "uint256"
        },
        {
          "internalType": "uint256",
          "name": "needed",
          "type": "uint256"
        }
      ],
      "name": "ERC20InsufficientBalance",
      "type": "error"
    },
    {
      "inputs": [
        {
          "internalType": "address",
          "name": "approver",
          "type": "address"
        }
      ],
      "name": "ERC20InvalidApprover",
      "type": "error"
    },
    {
      "inputs": [
        {
          "internalType": "address",
          "name": "receiver",
          "type": "address"
        }
      ],
      "name": "ERC20InvalidReceiver",
      "type": "error"
    },
    {
      "inputs": [
        {
          "internalType": "address",
          "name": "sender",
          "type": "address"
        }
      ],
      "name": "ERC20InvalidSender",
      "type": "error"
    },
    {
      "inputs": [
        {
          "internalType": "address",
          "name": "spender",
          "type": "address"
        }
      ],
      "name": "ERC20InvalidSpender",
      "type": "error"
    },
    {
      "inputs": [
        {
          "internalType": "address",
          "name": "owner",
          "type": "address"
        }
      ],
      "name": "OwnableInvalidOwner",
      "type": "error"
    },
    {
      "inputs": [
        {
          "internalType": "address",
          "name": "account",
          "type": "address"
        }
      ],
      "name": "OwnableUnauthorizedAccount",
      "type": "error"
    },
    {
      "inputs": [],
      "name": "VerificationFailed",
      "type": "error"
    },
    {
      "anonymous": false,
      "inputs": [
        {
          "indexed": true,
          "internalType": "address",
          "name": "owner",
          "type": "address"
        },
        {
          "indexed": true,
          "internalType": "address",
          "name": "spender",
          "type": "address"
        },
        {
          "indexed": false,
          "internalType": "uint256",
          "name": "value",
          "type": "uint256"
        }
      ],
      "name": "Approval",
      "type": "event"
    },
    {
      "anonymous": false,
      "inputs": [
        {
          "indexed": true,
          "internalType": "address",
          "name": "previousOwner",
          "type": "address"
        },
        {
          "indexed": true,
          "internalType": "address",
          "name": "newOwner",
          "type": "address"
        }
      ],
      "name": "OwnershipTransferred",
      "type": "event"
    },
    {
      "anonymous": false,
      "inputs": [
        {
          "indexed": false,
          "internalType": "bytes32",
          "name": "nullifierId",
          "type": "bytes32"
        },
        {
          "indexed": false,
          "internalType": "uint256",
          "name": "amount",
          "type": "uint256"
        }
      ],
      "name": "Remint",
      "type": "event"
    },
    {
      "anonymous": false,
      "inputs": [
        {
          "indexed": false,
          "internalType": "uint256",
          "name": "blockNumber",
          "type": "uint256"
        }
      ],
      "name": "StorageRootAdded",
      "type": "event"
    },
    {
      "anonymous": false,
      "inputs": [
        {
          "indexed": true,
          "internalType": "address",
          "name": "from",
          "type": "address"
        },
        {
          "indexed": true,
          "internalType": "address",
          "name": "to",
          "type": "address"
        },
        {
          "indexed": false,
          "internalType": "uint256",
          "name": "value",
          "type": "uint256"
        }
      ],
      "name": "Transfer",
      "type": "event"
    },
    {
      "inputs": [
        {
          "internalType": "address",
          "name": "to",
          "type": "address"
        },
        {
          "internalType": "uint256",
          "name": "amount",
          "type": "uint256"
        },
        {
          "internalType": "bytes32",
          "name": "storageRoot",
          "type": "bytes32"
        },
        {
          "internalType": "bytes32",
          "name": "nullifierId",
          "type": "bytes32"
        },
        {
          "internalType": "bytes32",
          "name": "nullifier",
          "type": "bytes32"
        }
      ],
      "name": "_formatPublicRemintInputs",
      "outputs": [
        {
          "internalType": "bytes32[]",
          "name": "",
          "type": "bytes32[]"
        }
      ],
      "stateMutability": "pure",
      "type": "function"
    },
    {
      "inputs": [
        {
          "internalType": "bytes32",
          "name": "storageRoot",
          "type": "bytes32"
        },
        {
          "internalType": "bytes32",
          "name": "blockHash",
          "type": "bytes32"
        },
        {
          "internalType": "address",
          "name": "contractAddress",
          "type": "address"
        }
      ],
      "name": "_formatPublicStorageRootInputs",
      "outputs": [
        {
          "internalType": "bytes32[]",
          "name": "",
          "type": "bytes32[]"
        }
      ],
      "stateMutability": "pure",
      "type": "function"
    },
    {
      "inputs": [
        {
          "internalType": "address",
          "name": "owner",
          "type": "address"
        },
        {
          "internalType": "address",
          "name": "spender",
          "type": "address"
        }
      ],
      "name": "allowance",
      "outputs": [
        {
          "internalType": "uint256",
          "name": "",
          "type": "uint256"
        }
      ],
      "stateMutability": "view",
      "type": "function"
    },
    {
      "inputs": [
        {
          "internalType": "address",
          "name": "spender",
          "type": "address"
        },
        {
          "internalType": "uint256",
          "name": "value",
          "type": "uint256"
        }
      ],
      "name": "approve",
      "outputs": [
        {
          "internalType": "bool",
          "name": "",
          "type": "bool"
        }
      ],
      "stateMutability": "nonpayable",
      "type": "function"
    },
    {
      "inputs": [
        {
          "internalType": "address",
          "name": "account",
          "type": "address"
        }
      ],
      "name": "balanceOf",
      "outputs": [
        {
          "internalType": "uint256",
          "name": "",
          "type": "uint256"
        }
      ],
      "stateMutability": "view",
      "type": "function"
    },
    {
      "inputs": [],
      "name": "decimals",
      "outputs": [
        {
          "internalType": "uint8",
          "name": "",
          "type": "uint8"
        }
      ],
      "stateMutability": "view",
      "type": "function"
    },
    {
      "inputs": [
        {
          "internalType": "address",
          "name": "to",
          "type": "address"
        },
        {
          "internalType": "uint256",
          "name": "amount",
          "type": "uint256"
        }
      ],
      "name": "mint",
      "outputs": [],
      "stateMutability": "nonpayable",
      "type": "function"
    },
    {
      "inputs": [],
      "name": "name",
      "outputs": [
        {
          "internalType": "string",
          "name": "",
          "type": "string"
        }
      ],
      "stateMutability": "view",
      "type": "function"
    },
    {
      "inputs": [],
      "name": "owner",
      "outputs": [
        {
          "internalType": "address",
          "name": "",
          "type": "address"
        }
      ],
      "stateMutability": "view",
      "type": "function"
    },
    {
      "inputs": [
        {
          "internalType": "bytes32",
          "name": "",
          "type": "bytes32"
        }
      ],
      "name": "partialNullifiers",
      "outputs": [
        {
          "internalType": "bytes32",
          "name": "",
          "type": "bytes32"
        }
      ],
      "stateMutability": "view",
      "type": "function"
    },
    {
      "inputs": [
        {
          "internalType": "address",
          "name": "to",
          "type": "address"
        },
        {
          "internalType": "uint256",
          "name": "amount",
          "type": "uint256"
        },
        {
          "internalType": "uint256",
          "name": "blockNum",
          "type": "uint256"
        },
        {
          "internalType": "bytes32",
          "name": "nullifierId",
          "type": "bytes32"
        },
        {
          "internalType": "bytes32",
          "name": "nullifier",
          "type": "bytes32"
        },
        {
          "internalType": "bytes",
          "name": "snarkProof",
          "type": "bytes"
        }
      ],
      "name": "reMint",
      "outputs": [],
      "stateMutability": "nonpayable",
      "type": "function"
    },
    {
      "inputs": [],
      "name": "remintVerifier",
      "outputs": [
        {
          "internalType": "address",
          "name": "",
          "type": "address"
        }
      ],
      "stateMutability": "view",
      "type": "function"
    },
    {
      "inputs": [
        {
          "internalType": "bytes32",
          "name": "",
          "type": "bytes32"
        }
      ],
      "name": "remintedAmounts",
      "outputs": [
        {
          "internalType": "uint256",
          "name": "",
          "type": "uint256"
        }
      ],
      "stateMutability": "view",
      "type": "function"
    },
    {
      "inputs": [],
      "name": "renounceOwnership",
      "outputs": [],
      "stateMutability": "nonpayable",
      "type": "function"
    },
    {
      "inputs": [
        {
          "internalType": "bytes32",
          "name": "storageRoot",
          "type": "bytes32"
        },
        {
          "internalType": "uint256",
          "name": "blockNum",
          "type": "uint256"
        },
        {
          "internalType": "bytes",
          "name": "snarkProof",
          "type": "bytes"
        }
      ],
      "name": "setStorageRoot",
      "outputs": [],
      "stateMutability": "nonpayable",
      "type": "function"
    },
    {
      "inputs": [
        {
          "internalType": "bytes32",
          "name": "storageRoot",
          "type": "bytes32"
        },
        {
          "internalType": "uint256",
          "name": "blockNum",
          "type": "uint256"
        }
      ],
      "name": "setTrustedStorageRoot",
      "outputs": [],
      "stateMutability": "nonpayable",
      "type": "function"
    },
    {
      "inputs": [
        {
          "internalType": "address",
          "name": "_storageRootVerifier",
          "type": "address"
        },
        {
          "internalType": "address",
          "name": "_remintVerifier",
          "type": "address"
        }
      ],
      "name": "setVerifiers",
      "outputs": [],
      "stateMutability": "nonpayable",
      "type": "function"
    },
    {
      "inputs": [],
      "name": "storageRootVerifier",
      "outputs": [
        {
          "internalType": "address",
          "name": "",
          "type": "address"
        }
      ],
      "stateMutability": "view",
      "type": "function"
    },
    {
      "inputs": [
        {
          "internalType": "uint256",
          "name": "",
          "type": "uint256"
        }
      ],
      "name": "storageRoots",
      "outputs": [
        {
          "internalType": "bytes32",
          "name": "",
          "type": "bytes32"
        }
      ],
      "stateMutability": "view",
      "type": "function"
    },
    {
      "inputs": [],
      "name": "symbol",
      "outputs": [
        {
          "internalType": "string",
          "name": "",
          "type": "string"
        }
      ],
      "stateMutability": "view",
      "type": "function"
    },
    {
      "inputs": [],
      "name": "totalSupply",
      "outputs": [
        {
          "internalType": "uint256",
          "name": "",
          "type": "uint256"
        }
      ],
      "stateMutability": "view",
      "type": "function"
    },
    {
      "inputs": [
        {
          "internalType": "address",
          "name": "to",
          "type": "address"
        },
        {
          "internalType": "uint256",
          "name": "value",
          "type": "uint256"
        }
      ],
      "name": "transfer",
      "outputs": [
        {
          "internalType": "bool",
          "name": "",
          "type": "bool"
        }
      ],
      "stateMutability": "nonpayable",
      "type": "function"
    },
    {
      "inputs": [
        {
          "internalType": "address",
          "name": "from",
          "type": "address"
        },
        {
          "internalType": "address",
          "name": "to",
          "type": "address"
        },
        {
          "internalType": "uint256",
          "name": "value",
          "type": "uint256"
        }
      ],
      "name": "transferFrom",
      "outputs": [
        {
          "internalType": "bool",
          "name": "",
          "type": "bool"
        }
      ],
      "stateMutability": "nonpayable",
      "type": "function"
    },
    {
      "inputs": [
        {
          "internalType": "address",
          "name": "newOwner",
          "type": "address"
        }
      ],
      "name": "transferOwnership",
      "outputs": [],
      "stateMutability": "nonpayable",
      "type": "function"
    }
  ],
  "bytecode": "0x608060405234801561000f575f5ffd5b5033604051806040016040528060118152602001703d35bbb7b936b437b632b996ba37b5b2b760791b8152506040518060400160405280600581526020016415d493521360da1b8152508160039081610068919061019d565b506004610075828261019d565b5050506001600160a01b0381166100a557604051631e4fbdf760e01b81525f600482015260240160405180910390fd5b6100ae816100b4565b50610257565b600580546001600160a01b038381166001600160a01b0319831681179093556040519116919082907f8be0079c531659141344cd1fd0a4f28419497f9722a3daafe3b4186f6b6457e0905f90a35050565b634e487b7160e01b5f52604160045260245ffd5b600181811c9082168061012d57607f821691505b60208210810361014b57634e487b7160e01b5f52602260045260245ffd5b50919050565b601f82111561019857805f5260205f20601f840160051c810160208510156101765750805b601f840160051c820191505b81811015610195575f8155600101610182565b50505b505050565b81516001600160401b038111156101b6576101b6610105565b6101ca816101c48454610119565b84610151565b6020601f8211600181146101fc575f83156101e55750848201515b5f19600385901b1c1916600184901b178455610195565b5f84815260208120601f198516915b8281101561022b578785015182556020948501946001909201910161020b565b508482101561024857868401515f19600387901b60f8161c191681555b50505050600190811b01905550565b611259806102645f395ff3fe608060405234801561000f575f5ffd5b5060043610610153575f3560e01c806370a08231116100bf578063cb47a2c011610079578063cb47a2c0146102ff578063dd62ed3e1461031d578063e6acb62e14610355578063e81c00c314610368578063f2fde38b1461037b578063f658cdfb1461038e575f5ffd5b806370a0823114610290578063715018a6146102b85780637c154d40146102c05780638da5cb5b146102d357806395d89b41146102e4578063a9059cbb146102ec575f5ffd5b80632f16463d116101105780632f16463d14610207578063313ce567146102275780633b091b48146102365780633e7da8ab1461024b57806340c10f191461025e578063610ebfe214610271575f5ffd5b806303bfa9d41461015757806306fdde031461018757806307ea8d911461019c578063095ea7b3146101c957806318160ddd146101ec57806323b872dd146101f4575b5f5ffd5b60085461016a906001600160a01b031681565b6040516001600160a01b0390911681526020015b60405180910390f35b61018f6103ad565b60405161017e9190610e23565b6101bb6101aa366004610e6e565b60076020525f908152604090205481565b60405190815260200161017e565b6101dc6101d7366004610ea0565b61043d565b604051901515815260200161017e565b6002546101bb565b6101dc610202366004610ec8565b610456565b61021a610215366004610f02565b610479565b60405161017e9190610f6e565b6040516012815260200161017e565b610249610244366004610fcc565b610576565b005b61021a610259366004611041565b6105a3565b61024961026c366004610ea0565b610680565b6101bb61027f366004610e6e565b600a6020525f908152604090205481565b6101bb61029e36600461107f565b6001600160a01b03165f9081526020819052604090205490565b61024961068e565b6102496102ce366004611098565b6106a1565b6005546001600160a01b031661016a565b61018f61078e565b6101dc6102fa366004610ea0565b61079d565b61024961030d3660046110c9565b5f908152600a6020526040902055565b6101bb61032b366004611098565b6001600160a01b039182165f90815260016020908152604080832093909416825291909152205490565b6102496103633660046110e9565b6107aa565b60095461016a906001600160a01b031681565b61024961038936600461107f565b61089b565b6101bb61039c366004610e6e565b60066020525f908152604090205481565b6060600380546103bc90611138565b80601f01602080910402602001604051908101604052809291908181526020018280546103e890611138565b80156104335780601f1061040a57610100808354040283529160200191610433565b820191905f5260205f20905b81548152906001019060200180831161041657829003601f168201915b5050505050905090565b5f3361044a8185856108d8565b60019150505b92915050565b5f336104638582856108ea565b61046e858585610965565b506001949350505050565b60408051604180825261084082019092526060915f9190602082016108208036833701905050905084815f815181106104b4576104b4611170565b6020908102919091010152606083901b60015b602181101561051757856104dc600183611198565b602081106104ec576104ec611170565b845191901a9084908390811061050457610504611170565b60209081029190910101526001016104c7565b5060215b603581101561056b5781610530602183611198565b6014811061054057610540611170565b845191901a9084908390811061055857610558611170565b602090810291909101015260010161051b565b509095945050505050565b61059a8787878787878760085f9054906101000a90046001600160a01b03166109c2565b50505050505050565b60408051600580825260c0820190925260609186916001600160a01b038916915f91906020820160a08036833701905050905081815f815181106105e9576105e9611170565b602002602001018181525050828160018151811061060957610609611170565b602002602001018181525050848160028151811061062957610629611170565b602002602001018181525050858160038151811061064957610649611170565b602002602001018181525050868160048151811061066957610669611170565b602090810291909101015298975050505050505050565b61068a8282610b79565b5050565b610696610bad565b61069f5f610bda565b565b6106a9610bad565b6008546001600160a01b0316156107075760405162461bcd60e51b815260206004820152601d60248201527f766572696669657220697320616c7265616479207365742073696c6c7900000060448201526064015b60405180910390fd5b6009546001600160a01b0316156107605760405162461bcd60e51b815260206004820152601d60248201527f766572696669657220697320616c7265616479207365742073696c6c7900000060448201526064016106fe565b600980546001600160a01b039384166001600160a01b03199182161790915560088054929093169116179055565b6060600480546103bc90611138565b5f3361044a818585610965565b82405f6107b8868330610479565b600954604051633a94343960e21b81529192506001600160a01b03169063ea50d0e4906107ed908790879086906004016111ab565b602060405180830381865afa158015610808573d5f5f3e3d5ffd5b505050506040513d601f19601f8201168201806040525081019061082c91906111f1565b6108495760405163439cc0cd60e01b815260040160405180910390fd5b5f858152600a602052604090819020879055517ffa8ed523c86185eb7bf97da8ff308810e778824b3620b2b88297a5c60bd627869061088b9087815260200190565b60405180910390a1505050505050565b6108a3610bad565b6001600160a01b0381166108cc57604051631e4fbdf760e01b81525f60048201526024016106fe565b6108d581610bda565b50565b6108e58383836001610c2b565b505050565b6001600160a01b038381165f908152600160209081526040808320938616835292905220545f19811461095f578181101561095157604051637dc7a0d960e11b81526001600160a01b038416600482015260248101829052604481018390526064016106fe565b61095f84848484035f610c2b565b50505050565b6001600160a01b03831661098e57604051634b637e8f60e11b81525f60048201526024016106fe565b6001600160a01b0382166109b75760405163ec442f0560e01b81525f60048201526024016106fe565b6108e5838383610cfd565b5f8581526006602052604090205415610a1d5760405162461bcd60e51b815260206004820152601760248201527f6e756c6c696669657220616c726561647920657869737400000000000000000060448201526064016106fe565b5f858152600660209081526040808320879055888352600a90915281205490610a498a8a848a8a6105a3565b604051633a94343960e21b81529091506001600160a01b0384169063ea50d0e490610a7c908890889086906004016111ab565b602060405180830381865afa158015610a97573d5f5f3e3d5ffd5b505050506040513d601f19601f82011682018060405250810190610abb91906111f1565b610ad85760405163439cc0cd60e01b815260040160405180910390fd5b6001600160a01b038a165f8181526020818152604080832080548e019055518c81527fddf252ad1be2c89b69c2b068fc378daa952ba7f163c4a11628f55a4df523b3ef910160405180910390a360408051888152602081018b90527fc4b38c5db744c4baba20385f27df9c9aafc7781c73c43033246f144a2112e990910160405180910390a15050505f938452505060076020525060409020919091555050565b6001600160a01b038216610ba25760405163ec442f0560e01b81525f60048201526024016106fe565b61068a5f8383610cfd565b6005546001600160a01b0316331461069f5760405163118cdaa760e01b81523360048201526024016106fe565b600580546001600160a01b038381166001600160a01b0319831681179093556040519116919082907f8be0079c531659141344cd1fd0a4f28419497f9722a3daafe3b4186f6b6457e0905f90a35050565b6001600160a01b038416610c545760405163e602df0560e01b81525f60048201526024016106fe565b6001600160a01b038316610c7d57604051634a1406b160e11b81525f60048201526024016106fe565b6001600160a01b038085165f908152600160209081526040808320938716835292905220829055801561095f57826001600160a01b0316846001600160a01b03167f8c5be1e5ebec7d5bd14f71427d1e84f3dd0314c0f7b2291e5b200ac8c7c3b92584604051610cef91815260200190565b60405180910390a350505050565b6001600160a01b038316610d27578060025f828254610d1c9190611210565b90915550610d979050565b6001600160a01b0383165f9081526020819052604090205481811015610d795760405163391434e360e21b81526001600160a01b038516600482015260248101829052604481018390526064016106fe565b6001600160a01b0384165f9081526020819052604090209082900390555b6001600160a01b038216610db357600280548290039055610dd1565b6001600160a01b0382165f9081526020819052604090208054820190555b816001600160a01b0316836001600160a01b03167fddf252ad1be2c89b69c2b068fc378daa952ba7f163c4a11628f55a4df523b3ef83604051610e1691815260200190565b60405180910390a3505050565b602081525f82518060208401525f5b81811015610e4f5760208186018101516040868401015201610e32565b505f604082850101526040601f19601f83011684010191505092915050565b5f60208284031215610e7e575f5ffd5b5035919050565b80356001600160a01b0381168114610e9b575f5ffd5b919050565b5f5f60408385031215610eb1575f5ffd5b610eba83610e85565b946020939093013593505050565b5f5f5f60608486031215610eda575f5ffd5b610ee384610e85565b9250610ef160208501610e85565b929592945050506040919091013590565b5f5f5f60608486031215610f14575f5ffd5b8335925060208401359150610f2b60408501610e85565b90509250925092565b5f8151808452602084019350602083015f5b82811015610f64578151865260209586019590910190600101610f46565b5093949350505050565b602081525f610f806020830184610f34565b9392505050565b5f5f83601f840112610f97575f5ffd5b50813567ffffffffffffffff811115610fae575f5ffd5b602083019150836020828501011115610fc5575f5ffd5b9250929050565b5f5f5f5f5f5f5f60c0888a031215610fe2575f5ffd5b610feb88610e85565b96506020880135955060408801359450606088013593506080880135925060a088013567ffffffffffffffff811115611022575f5ffd5b61102e8a828b01610f87565b989b979a50959850939692959293505050565b5f5f5f5f5f60a08688031215611055575f5ffd5b61105e86610e85565b97602087013597506040870135966060810135965060800135945092505050565b5f6020828403121561108f575f5ffd5b610f8082610e85565b5f5f604083850312156110a9575f5ffd5b6110b283610e85565b91506110c060208401610e85565b90509250929050565b5f5f604083850312156110da575f5ffd5b50508035926020909101359150565b5f5f5f5f606085870312156110fc575f5ffd5b8435935060208501359250604085013567ffffffffffffffff811115611120575f5ffd5b61112c87828801610f87565b95989497509550505050565b600181811c9082168061114c57607f821691505b60208210810361116a57634e487b7160e01b5f52602260045260245ffd5b50919050565b634e487b7160e01b5f52603260045260245ffd5b634e487b7160e01b5f52601160045260245ffd5b8181038181111561045057610450611184565b60408152826040820152828460608301375f606084830101525f601f19601f850116820160608382030160208401526111e76060820185610f34565b9695505050505050565b5f60208284031215611201575f5ffd5b81518015158114610f80575f5ffd5b808201808211156104505761045061118456fea26469706673582212202995c4634e396b41d89025fe0d792cd00831fa30ce88e40a38fe2268226f1c1864736f6c634300081c0033",
  "linkReferences": {},
  "deployedLinkReferences": {}
}