{
  "_format": "hh-sol-artifact-1",
  "contractName": "Token",
  "sourceName": "contracts/Token.sol",
  "abi": [
    {
      "inputs": [],
      "stateMutability": "nonpayable",
      "type": "constructor"
    },
    {
      "inputs": [
        {
          "internalType": "address",
          "name": "spender",
          "type": "address"
        },
        {
          "internalType": "uint256",
          "name": "allowance",
          "type": "uint256"
        },
        {
          "internalType": "uint256",
          "name": "needed",
          "type": "uint256"
        }
      ],
      "name": "ERC20InsufficientAllowance",
      "type": "error"
    },
    {
      "inputs": [
        {
          "internalType": "address",
          "name": "sender",
          "type": "address"
        },
        {
          "internalType": "uint256",
          "name": "balance",
          "type": "uint256"
        },
        {
          "internalType": "uint256",
          "name": "needed",
          "type": "uint256"
        }
      ],
      "name": "ERC20InsufficientBalance",
      "type": "error"
    },
    {
      "inputs": [
        {
          "internalType": "address",
          "name": "approver",
          "type": "address"
        }
      ],
      "name": "ERC20InvalidApprover",
      "type": "error"
    },
    {
      "inputs": [
        {
          "internalType": "address",
          "name": "receiver",
          "type": "address"
        }
      ],
      "name": "ERC20InvalidReceiver",
      "type": "error"
    },
    {
      "inputs": [
        {
          "internalType": "address",
          "name": "sender",
          "type": "address"
        }
      ],
      "name": "ERC20InvalidSender",
      "type": "error"
    },
    {
      "inputs": [
        {
          "internalType": "address",
          "name": "spender",
          "type": "address"
        }
      ],
      "name": "ERC20InvalidSpender",
      "type": "error"
    },
    {
      "inputs": [
        {
          "internalType": "address",
          "name": "owner",
          "type": "address"
        }
      ],
      "name": "OwnableInvalidOwner",
      "type": "error"
    },
    {
      "inputs": [
        {
          "internalType": "address",
          "name": "account",
          "type": "address"
        }
      ],
      "name": "OwnableUnauthorizedAccount",
      "type": "error"
    },
    {
      "inputs": [],
      "name": "VerificationFailed",
      "type": "error"
    },
    {
      "anonymous": false,
      "inputs": [
        {
          "indexed": true,
          "internalType": "address",
          "name": "owner",
          "type": "address"
        },
        {
          "indexed": true,
          "internalType": "address",
          "name": "spender",
          "type": "address"
        },
        {
          "indexed": false,
          "internalType": "uint256",
          "name": "value",
          "type": "uint256"
        }
      ],
      "name": "Approval",
      "type": "event"
    },
    {
      "anonymous": false,
      "inputs": [
        {
          "indexed": true,
          "internalType": "address",
          "name": "previousOwner",
          "type": "address"
        },
        {
          "indexed": true,
          "internalType": "address",
          "name": "newOwner",
          "type": "address"
        }
      ],
      "name": "OwnershipTransferred",
      "type": "event"
    },
    {
      "anonymous": false,
      "inputs": [
        {
          "indexed": false,
          "internalType": "bytes32",
          "name": "nullifierId",
          "type": "bytes32"
        },
        {
          "indexed": false,
          "internalType": "uint256",
          "name": "amount",
          "type": "uint256"
        }
      ],
      "name": "Remint",
      "type": "event"
    },
    {
      "anonymous": false,
      "inputs": [
        {
          "indexed": true,
          "internalType": "address",
          "name": "from",
          "type": "address"
        },
        {
          "indexed": true,
          "internalType": "address",
          "name": "to",
          "type": "address"
        },
        {
          "indexed": false,
          "internalType": "uint256",
          "name": "value",
          "type": "uint256"
        }
      ],
      "name": "Transfer",
      "type": "event"
    },
    {
      "inputs": [
        {
          "internalType": "address",
          "name": "to",
          "type": "address"
        },
        {
          "internalType": "uint256",
          "name": "amount",
          "type": "uint256"
        },
        {
          "internalType": "bytes32",
          "name": "blkhash",
          "type": "bytes32"
        },
        {
          "internalType": "bytes32",
          "name": "nullifierId",
          "type": "bytes32"
        },
        {
          "internalType": "bytes32",
          "name": "nullifier",
          "type": "bytes32"
        }
      ],
      "name": "_formatPublicInputs",
      "outputs": [
        {
          "internalType": "bytes32[]",
          "name": "",
          "type": "bytes32[]"
        }
      ],
      "stateMutability": "pure",
      "type": "function"
    },
    {
      "inputs": [
        {
          "internalType": "address",
          "name": "owner",
          "type": "address"
        },
        {
          "internalType": "address",
          "name": "spender",
          "type": "address"
        }
      ],
      "name": "allowance",
      "outputs": [
        {
          "internalType": "uint256",
          "name": "",
          "type": "uint256"
        }
      ],
      "stateMutability": "view",
      "type": "function"
    },
    {
      "inputs": [
        {
          "internalType": "address",
          "name": "spender",
          "type": "address"
        },
        {
          "internalType": "uint256",
          "name": "value",
          "type": "uint256"
        }
      ],
      "name": "approve",
      "outputs": [
        {
          "internalType": "bool",
          "name": "",
          "type": "bool"
        }
      ],
      "stateMutability": "nonpayable",
      "type": "function"
    },
    {
      "inputs": [
        {
          "internalType": "address",
          "name": "account",
          "type": "address"
        }
      ],
      "name": "balanceOf",
      "outputs": [
        {
          "internalType": "uint256",
          "name": "",
          "type": "uint256"
        }
      ],
      "stateMutability": "view",
      "type": "function"
    },
    {
      "inputs": [],
      "name": "decimals",
      "outputs": [
        {
          "internalType": "uint8",
          "name": "",
          "type": "uint8"
        }
      ],
      "stateMutability": "view",
      "type": "function"
    },
    {
      "inputs": [],
      "name": "fullVerifier",
      "outputs": [
        {
          "internalType": "address",
          "name": "",
          "type": "address"
        }
      ],
      "stateMutability": "view",
      "type": "function"
    },
    {
      "inputs": [
        {
          "internalType": "address",
          "name": "to",
          "type": "address"
        },
        {
          "internalType": "uint256",
          "name": "amount",
          "type": "uint256"
        }
      ],
      "name": "mint",
      "outputs": [],
      "stateMutability": "nonpayable",
      "type": "function"
    },
    {
      "inputs": [],
      "name": "name",
      "outputs": [
        {
          "internalType": "string",
          "name": "",
          "type": "string"
        }
      ],
      "stateMutability": "view",
      "type": "function"
    },
    {
      "inputs": [],
      "name": "owner",
      "outputs": [
        {
          "internalType": "address",
          "name": "",
          "type": "address"
        }
      ],
      "stateMutability": "view",
      "type": "function"
    },
    {
      "inputs": [
        {
          "internalType": "bytes32",
          "name": "",
          "type": "bytes32"
        }
      ],
      "name": "partialNullifiers",
      "outputs": [
        {
          "internalType": "bytes32",
          "name": "",
          "type": "bytes32"
        }
      ],
      "stateMutability": "view",
      "type": "function"
    },
    {
      "inputs": [
        {
          "internalType": "address",
          "name": "to",
          "type": "address"
        },
        {
          "internalType": "uint256",
          "name": "amount",
          "type": "uint256"
        },
        {
          "internalType": "uint256",
          "name": "blockNum",
          "type": "uint256"
        },
        {
          "internalType": "bytes32",
          "name": "nullifierId",
          "type": "bytes32"
        },
        {
          "internalType": "bytes32",
          "name": "nullifier",
          "type": "bytes32"
        },
        {
          "internalType": "bytes",
          "name": "snarkProof",
          "type": "bytes"
        }
      ],
      "name": "reMint",
      "outputs": [],
      "stateMutability": "nonpayable",
      "type": "function"
    },
    {
      "inputs": [
        {
          "internalType": "address",
          "name": "to",
          "type": "address"
        },
        {
          "internalType": "uint256",
          "name": "amount",
          "type": "uint256"
        },
        {
          "internalType": "uint256",
          "name": "blockNum",
          "type": "uint256"
        },
        {
          "internalType": "bytes32",
          "name": "nullifierId",
          "type": "bytes32"
        },
        {
          "internalType": "bytes32",
          "name": "nullifier",
          "type": "bytes32"
        },
        {
          "internalType": "bytes",
          "name": "snarkProof",
          "type": "bytes"
        }
      ],
      "name": "reMintFullVerifier",
      "outputs": [],
      "stateMutability": "nonpayable",
      "type": "function"
    },
    {
      "inputs": [
        {
          "internalType": "bytes32",
          "name": "",
          "type": "bytes32"
        }
      ],
      "name": "remintedAmounts",
      "outputs": [
        {
          "internalType": "uint256",
          "name": "",
          "type": "uint256"
        }
      ],
      "stateMutability": "view",
      "type": "function"
    },
    {
      "inputs": [],
      "name": "renounceOwnership",
      "outputs": [],
      "stateMutability": "nonpayable",
      "type": "function"
    },
    {
      "inputs": [
        {
          "internalType": "bytes32",
          "name": "blockHash",
          "type": "bytes32"
        },
        {
          "internalType": "uint256",
          "name": "blockNum",
          "type": "uint256"
        }
      ],
      "name": "setBlockHash",
      "outputs": [],
      "stateMutability": "nonpayable",
      "type": "function"
    },
    {
      "inputs": [
        {
          "internalType": "address",
          "name": "_fullVerifier",
          "type": "address"
        },
        {
          "internalType": "address",
          "name": "_smolVerifier",
          "type": "address"
        }
      ],
      "name": "setVerifiers",
      "outputs": [],
      "stateMutability": "nonpayable",
      "type": "function"
    },
    {
      "inputs": [],
      "name": "smolVerifier",
      "outputs": [
        {
          "internalType": "address",
          "name": "",
          "type": "address"
        }
      ],
      "stateMutability": "view",
      "type": "function"
    },
    {
      "inputs": [],
      "name": "symbol",
      "outputs": [
        {
          "internalType": "string",
          "name": "",
          "type": "string"
        }
      ],
      "stateMutability": "view",
      "type": "function"
    },
    {
      "inputs": [],
      "name": "totalSupply",
      "outputs": [
        {
          "internalType": "uint256",
          "name": "",
          "type": "uint256"
        }
      ],
      "stateMutability": "view",
      "type": "function"
    },
    {
      "inputs": [
        {
          "internalType": "address",
          "name": "to",
          "type": "address"
        },
        {
          "internalType": "uint256",
          "name": "value",
          "type": "uint256"
        }
      ],
      "name": "transfer",
      "outputs": [
        {
          "internalType": "bool",
          "name": "",
          "type": "bool"
        }
      ],
      "stateMutability": "nonpayable",
      "type": "function"
    },
    {
      "inputs": [
        {
          "internalType": "address",
          "name": "from",
          "type": "address"
        },
        {
          "internalType": "address",
          "name": "to",
          "type": "address"
        },
        {
          "internalType": "uint256",
          "name": "value",
          "type": "uint256"
        }
      ],
      "name": "transferFrom",
      "outputs": [
        {
          "internalType": "bool",
          "name": "",
          "type": "bool"
        }
      ],
      "stateMutability": "nonpayable",
      "type": "function"
    },
    {
      "inputs": [
        {
          "internalType": "address",
          "name": "newOwner",
          "type": "address"
        }
      ],
      "name": "transferOwnership",
      "outputs": [],
      "stateMutability": "nonpayable",
      "type": "function"
    },
    {
      "inputs": [
        {
          "internalType": "uint256",
          "name": "",
          "type": "uint256"
        }
      ],
      "name": "trustedBlockhash",
      "outputs": [
        {
          "internalType": "bytes32",
          "name": "",
          "type": "bytes32"
        }
      ],
      "stateMutability": "view",
      "type": "function"
    }
  ],
  "bytecode": "0x608060405234801562000010575f80fd5b5033604051806040016040528060118152602001703d35bbb7b936b437b632b996ba37b5b2b760791b8152506040518060400160405280600581526020016415d493521360da1b81525081600390816200006b9190620001ac565b5060046200007a8282620001ac565b5050506001600160a01b038116620000ab57604051631e4fbdf760e01b81525f600482015260240160405180910390fd5b620000b681620000bd565b5062000278565b600580546001600160a01b038381166001600160a01b0319831681179093556040519116919082907f8be0079c531659141344cd1fd0a4f28419497f9722a3daafe3b4186f6b6457e0905f90a35050565b634e487b7160e01b5f52604160045260245ffd5b600181811c908216806200013757607f821691505b6020821081036200015657634e487b7160e01b5f52602260045260245ffd5b50919050565b601f821115620001a757805f5260205f20601f840160051c81016020851015620001835750805b601f840160051c820191505b81811015620001a4575f81556001016200018f565b50505b505050565b81516001600160401b03811115620001c857620001c86200010e565b620001e081620001d9845462000122565b846200015c565b602080601f83116001811462000216575f8415620001fe5750858301515b5f19600386901b1c1916600185901b17855562000270565b5f85815260208120601f198616915b82811015620002465788860151825594840194600190910190840162000225565b50858210156200026457878501515f19600388901b60f8161c191681555b505060018460011b0185555b505050505050565b61101180620002865f395ff3fe608060405234801561000f575f80fd5b5060043610610148575f3560e01c80636688321b116100bf578063a9059cbb11610079578063a9059cbb146102d7578063c1203bf1146102ea578063dd62ed3e1461030a578063e4f729bf14610342578063f2fde38b14610361578063f658cdfb14610374575f80fd5b80636688321b1461026857806370a082311461027b578063715018a6146102a35780637c154d40146102ab5780638da5cb5b146102be57806395d89b41146102cf575f80fd5b8063313ce56711610110578063313ce567146101d55780633b091b48146101e457806340c10f19146101f957806343ecaa0e1461020c5780635225d4eb1461021f57806352569f561461024a575f80fd5b806306fdde031461014c57806307ea8d911461016a578063095ea7b31461019757806318160ddd146101ba57806323b872dd146101c2575b5f80fd5b610154610393565b6040516101619190610c75565b60405180910390f35b610189610178366004610cc1565b60076020525f908152604090205481565b604051908152602001610161565b6101aa6101a5366004610cf3565b610423565b6040519015158152602001610161565b600254610189565b6101aa6101d0366004610d1b565b61043c565b60405160128152602001610161565b6101f76101f2366004610d54565b61045f565b005b6101f7610207366004610cf3565b61048c565b6101f761021a366004610d54565b61049a565b600954610232906001600160a01b031681565b6040516001600160a01b039091168152602001610161565b6101f7610258366004610df5565b5f908152600a6020526040902055565b600854610232906001600160a01b031681565b610189610289366004610e15565b6001600160a01b03165f9081526020819052604090205490565b6101f76104be565b6101f76102b9366004610e35565b6104d1565b6005546001600160a01b0316610232565b6101546105be565b6101aa6102e5366004610cf3565b6105cd565b6102fd6102f8366004610e66565b6105da565b6040516101619190610ede565b610189610318366004610e35565b6001600160a01b039182165f90815260016020908152604080832093909416825291909152205490565b610189610350366004610cc1565b600a6020525f908152604090205481565b6101f761036f366004610e15565b6106ed565b610189610382366004610cc1565b60066020525f908152604090205481565b6060600380546103a290610ef0565b80601f01602080910402602001604051908101604052809291908181526020018280546103ce90610ef0565b80156104195780601f106103f057610100808354040283529160200191610419565b820191905f5260205f20905b8154815290600101906020018083116103fc57829003601f168201915b5050505050905090565b5f3361043081858561072a565b60019150505b92915050565b5f3361044985828561073c565b6104548585856107b7565b506001949350505050565b6104838787878787878760085f9054906101000a90046001600160a01b0316610814565b50505050505050565b61049682826109cb565b5050565b6104838787878787878760095f9054906101000a90046001600160a01b0316610814565b6104c66109ff565b6104cf5f610a2c565b565b6104d96109ff565b6008546001600160a01b0316156105375760405162461bcd60e51b815260206004820152601d60248201527f766572696669657220697320616c7265616479207365742073696c6c7900000060448201526064015b60405180910390fd5b6009546001600160a01b0316156105905760405162461bcd60e51b815260206004820152601d60248201527f766572696669657220697320616c7265616479207365742073696c6c79000000604482015260640161052e565b600980546001600160a01b039384166001600160a01b03199182161790915560088054929093169116179055565b6060600480546103a290610ef0565b5f336104308185856107b7565b6040805160248082526104a0820190925260609186916001600160a01b038916915f9190602082016104808036833701905050905081815f8151811061062257610622610f28565b602002602001018181525050828160018151811061064257610642610f28565b602002602001018181525050848160028151811061066257610662610f28565b602002602001018181525050858160038151811061068257610682610f28565b602090810291909101015260045b60248110156106e057876106a5600483610f50565b602081106106b5576106b5610f28565b835191901a908390839081106106cd576106cd610f28565b6020908102919091010152600101610690565b5098975050505050505050565b6106f56109ff565b6001600160a01b03811661071e57604051631e4fbdf760e01b81525f600482015260240161052e565b61072781610a2c565b50565b6107378383836001610a7d565b505050565b6001600160a01b038381165f908152600160209081526040808320938616835292905220545f1981146107b157818110156107a357604051637dc7a0d960e11b81526001600160a01b0384166004820152602481018290526044810183905260640161052e565b6107b184848484035f610a7d565b50505050565b6001600160a01b0383166107e057604051634b637e8f60e11b81525f600482015260240161052e565b6001600160a01b0382166108095760405163ec442f0560e01b81525f600482015260240161052e565b610737838383610b4f565b5f858152600660205260409020541561086f5760405162461bcd60e51b815260206004820152601760248201527f6e756c6c696669657220616c7265616479206578697374000000000000000000604482015260640161052e565b5f858152600660209081526040808320879055888352600a9091528120549061089b8a8a848a8a6105da565b604051633a94343960e21b81529091506001600160a01b0384169063ea50d0e4906108ce90889088908690600401610f63565b602060405180830381865afa1580156108e9573d5f803e3d5ffd5b505050506040513d601f19601f8201168201806040525081019061090d9190610fa9565b61092a5760405163439cc0cd60e01b815260040160405180910390fd5b6001600160a01b038a165f8181526020818152604080832080548e019055518c81527fddf252ad1be2c89b69c2b068fc378daa952ba7f163c4a11628f55a4df523b3ef910160405180910390a360408051888152602081018b90527fc4b38c5db744c4baba20385f27df9c9aafc7781c73c43033246f144a2112e990910160405180910390a15050505f938452505060076020525060409020919091555050565b6001600160a01b0382166109f45760405163ec442f0560e01b81525f600482015260240161052e565b6104965f8383610b4f565b6005546001600160a01b031633146104cf5760405163118cdaa760e01b815233600482015260240161052e565b600580546001600160a01b038381166001600160a01b0319831681179093556040519116919082907f8be0079c531659141344cd1fd0a4f28419497f9722a3daafe3b4186f6b6457e0905f90a35050565b6001600160a01b038416610aa65760405163e602df0560e01b81525f600482015260240161052e565b6001600160a01b038316610acf57604051634a1406b160e11b81525f600482015260240161052e565b6001600160a01b038085165f90815260016020908152604080832093871683529290522082905580156107b157826001600160a01b0316846001600160a01b03167f8c5be1e5ebec7d5bd14f71427d1e84f3dd0314c0f7b2291e5b200ac8c7c3b92584604051610b4191815260200190565b60405180910390a350505050565b6001600160a01b038316610b79578060025f828254610b6e9190610fc8565b90915550610be99050565b6001600160a01b0383165f9081526020819052604090205481811015610bcb5760405163391434e360e21b81526001600160a01b0385166004820152602481018290526044810183905260640161052e565b6001600160a01b0384165f9081526020819052604090209082900390555b6001600160a01b038216610c0557600280548290039055610c23565b6001600160a01b0382165f9081526020819052604090208054820190555b816001600160a01b0316836001600160a01b03167fddf252ad1be2c89b69c2b068fc378daa952ba7f163c4a11628f55a4df523b3ef83604051610c6891815260200190565b60405180910390a3505050565b5f602080835283518060208501525f5b81811015610ca157858101830151858201604001528201610c85565b505f604082860101526040601f19601f8301168501019250505092915050565b5f60208284031215610cd1575f80fd5b5035919050565b80356001600160a01b0381168114610cee575f80fd5b919050565b5f8060408385031215610d04575f80fd5b610d0d83610cd8565b946020939093013593505050565b5f805f60608486031215610d2d575f80fd5b610d3684610cd8565b9250610d4460208501610cd8565b9150604084013590509250925092565b5f805f805f805f60c0888a031215610d6a575f80fd5b610d7388610cd8565b96506020880135955060408801359450606088013593506080880135925060a088013567ffffffffffffffff80821115610dab575f80fd5b818a0191508a601f830112610dbe575f80fd5b813581811115610dcc575f80fd5b8b6020828501011115610ddd575f80fd5b60208301945080935050505092959891949750929550565b5f8060408385031215610e06575f80fd5b50508035926020909101359150565b5f60208284031215610e25575f80fd5b610e2e82610cd8565b9392505050565b5f8060408385031215610e46575f80fd5b610e4f83610cd8565b9150610e5d60208401610cd8565b90509250929050565b5f805f805f60a08688031215610e7a575f80fd5b610e8386610cd8565b97602087013597506040870135966060810135965060800135945092505050565b5f815180845260208085019450602084015f5b83811015610ed357815187529582019590820190600101610eb7565b509495945050505050565b602081525f610e2e6020830184610ea4565b600181811c90821680610f0457607f821691505b602082108103610f2257634e487b7160e01b5f52602260045260245ffd5b50919050565b634e487b7160e01b5f52603260045260245ffd5b634e487b7160e01b5f52601160045260245ffd5b8181038181111561043657610436610f3c565b60408152826040820152828460608301375f606084830101525f601f19601f85011682016060838203016020840152610f9f6060820185610ea4565b9695505050505050565b5f60208284031215610fb9575f80fd5b81518015158114610e2e575f80fd5b8082018082111561043657610436610f3c56fea2646970667358221220902c99fe08a487c819bd2702571625d3935051fc37ba67eefbc5614ce95a43e864736f6c63430008170033",
  "linkReferences": {},
  "deployedLinkReferences": {}
}