{
  "_format": "hh-sol-artifact-1",
  "contractName": "FullVerifier",
  "sourceName": "contracts/FullVerifier.sol",
  "abi": [
    {
      "inputs": [],
      "name": "INVALID_VERIFICATION_KEY",
      "type": "error"
    },
    {
      "inputs": [],
      "name": "MOD_EXP_FAILURE",
      "type": "error"
    },
    {
      "inputs": [],
      "name": "OPENING_COMMITMENT_FAILED",
      "type": "error"
    },
    {
      "inputs": [],
      "name": "PAIRING_FAILED",
      "type": "error"
    },
    {
      "inputs": [],
      "name": "PAIRING_PREAMBLE_FAILED",
      "type": "error"
    },
    {
      "inputs": [],
      "name": "POINT_NOT_ON_CURVE",
      "type": "error"
    },
    {
      "inputs": [
        {
          "internalType": "uint256",
          "name": "expected",
          "type": "uint256"
        },
        {
          "internalType": "uint256",
          "name": "actual",
          "type": "uint256"
        }
      ],
      "name": "PUBLIC_INPUT_COUNT_INVALID",
      "type": "error"
    },
    {
      "inputs": [],
      "name": "PUBLIC_INPUT_GE_P",
      "type": "error"
    },
    {
      "inputs": [],
      "name": "PUBLIC_INPUT_INVALID_BN128_G1_POINT",
      "type": "error"
    },
    {
      "inputs": [],
      "name": "getVerificationKeyHash",
      "outputs": [
        {
          "internalType": "bytes32",
          "name": "",
          "type": "bytes32"
        }
      ],
      "stateMutability": "pure",
      "type": "function"
    },
    {
      "inputs": [
        {
          "internalType": "bytes",
          "name": "_proof",
          "type": "bytes"
        },
        {
          "internalType": "bytes32[]",
          "name": "_publicInputs",
          "type": "bytes32[]"
        }
      ],
      "name": "verify",
      "outputs": [
        {
          "internalType": "bool",
          "name": "",
          "type": "bool"
        }
      ],
      "stateMutability": "view",
      "type": "function"
    }
  ],
  "bytecode": "0x608060405234801561000f575f80fd5b50621000006103805260246103a0527f26125da10a0ed06327508aba06d1e303ac616632dbed349f53422da9533378576103c0527f30644b6c9c4a72169e4daa317d25f04512ae15c53b34e8f5acd8e155d0a6c1016103e0527f2e97afe282ffec89806cb7156e0f226b1cf37a4a7cecb0384ba21589c82372d7610400527f22b801b38964e56ada9f196a7aff29fd0951592461ca2fdc63dcbc6cb2909a7b610420527f1fc910f04c97e54ceb9180f7bc89b97c0d5a8f4e24289fbe3ea571b7e451e6ff610440527f2e2fcf03084ba917c45b2a01a330b0007997ebf769987e677732364462122f80610460527f09b5a2d179a94d19b7889c066475572f15915b3b48ac57d26ee2c1dc7760d8d8610480527f2d91a76a03065084f0f104c106ef0a422535a92d1a764043798aefbdcc8c917c6104a0527f0519751cb46a879a501803a3cb4e2a1128423dfabc2bc5c745d143eacb5944446104c0527f147a205515bc7cf6fc25d39d9a046210317af85386e8333958cf9704c0f2e9a76104e0527f04439196bc80e03e59e7d24ee04e68f7a6e478972e6134921c73b3b00f15e564610500527f2f5c8eff0895d6dea06ff5c3ab38dba20caf4c25ee62c35c240d09167d00b8e6610520527f07f34957b49e654fe2cef183c7d3d3e568845470257f820edeb62969f0201bac610540527f229be1e009e79bb6ac006d8ceaba01b3f290dc5ee78b0274b6923afda2bf6d81610560527f258f069de038dfaeea1347be6ed1008c2d15a5bf0fd30b94ba3276ac66612e9a610580527f166974c8d43a0e11a5c078a724bc0bc1d2a0ace429fb3745a24991da8cd03ecd6105a0527f1c7504ffa1eba8e7aa3def8ec9754eaaeca2d86284a9538615d52246ad2a6b7e6105c0527f29f650e468f20f0398ba3730455f922cea1823011f1c0f499e8769df16b1024e6105e0527f06c093e4760cabdd979a94e974fa7c14dfe00637cdf5b430c7d27cff3299d262610600527e8aef0572e8120fcd06449668f2f210017bbce40c3bd5c978190068113f73a5610620527f05b72ccc1d0fe81091a2a06643149d674ca1118a50df624fe399fdbaa8507132610640527f23c8412893f9125031b41f559e981a00667f99b2d9c7d798ffc0677d342c9425610660527f24dfc57fa5ba0b71a6872566b6f868b656325a20a5fe8f5d262981ed4b3498e7610680527f11027653c51c2efd15a752f41b92c0f7c17377d708b069cc8d0487c59b20eb3a6106a0527f24b7fb842fd078a11b58f12bc779b9cc26ea57a18bba48544c526c100f6e97df6106c0527f11ddf7d299f914a3e65306d98901058017fce4fdd6e52b54ce7a075499a0fc6f6106e0527f259f0797fa04bb9001b4ef008b3d81e26da95175e835d5bcce74e11f82234063610700527f12bed9c5d3e436f8b8649461c43dcb608e7d7e8b85b87178f0d79e2ba05ff176610720527f20a96e2a3e694de19b16b966a93cb7b1ab1f9be1ed724c36c9cdbb774f5800d7610740527f02397b672cd35ac2e14cc8738b660293be2e431bbdfd5ddbe60022e9a52c276a610760527f1c17b8bbe90b18458eafb78a1ec44e20823f08c2a727694b7a2fd2c80473b318610780527f0c8f2c538ca5648ae3652fa1457de152013eade31795f2899b47610650f488fa6107a0527f236b5c10f340ff6d3ccfa5f2f1c8e4d32c41f9cde329b324d4b26f20691acd586107c0527f14d1642b960f8f14c708ff3fa20b0845b365f3fbb85cee5ec020883b4226b52e6107e0527f266e9d7a512cb2d0fcf72c19b63c735b3951b8a44999234e44afebdf7148e04e610800527f1f31241ced8ec52b2bfdf560732a44654001aaa32d3fb8e0b3880fa8e9c746dc610820527f2c2286b2c0efae3c6586c754ef75871b8640bd2c5a0fb04e64faf604775d1636610840527f06aaaabfef1843b2b4eaa7233673bfbc44c3a302ffd0a411a17dd42932b42198610860527f06c1535892aba62c64ce011935a30c2c278ff99361e118e5b256117c39905efd610880527e420b4a168c3086fa31b3c129c6e5eb0cf85cf53ca2988c643fbaa29f965ebd6108a0527f1fe6260c886baa5a5bacd55ec336888cd5a5395d9e0f9129acd51a2356529d7a6108c0527f1aeed36fc20b98133b216b62bffdc7b35150b22c2b313e32d1d86b93bc6b3c466108e0527f1117a73e86b0a39e3a6e4be1022ed15adb62aecaa0bf1214f22eacc4ca063b60610900527f093a79d9504787560945fb8a2a9e11d758325bb257dd43872d5f5f6d76f20b58610920527f2594762014d0024ddf4dcab3181bf34b469a6e56f91bfb58c68b8201cae8050d610940527f2f69e5475d9d65ede2bd89f9823a09e53f9968f480b355174f824d8b39006751610960527e4265fcad0b471308143277e83bd7d59a83efa42a4a35175d76d7c3e15666fb610980527f24d2d6993aefe4badbd77fe9e84333cc9d20078ef20a80984e8a8e20a3bec7bb6109a0525f6109c08190526109e0527f260e01b251f6f1c7e7ff4e580791dee8ea51d87a358e038b4efe30fac09383c1610a00527f0118c4d5b837bcc2bc89b5b398b5974e9f5944073b32078b7e231fec938883b0610a20527f04fc6369f7110fe3d25156c1bb9a72859cf2a04641f99ba4ee413c80da6a5fe4610a40527f22febda3c0c0632a56475b4214e5615e11e6dd3f96e6cea2854a87d4dacc5e55610a60527f100c332d2100895fab6473bc2c51bfca521f45cb3baca6260852a8fde26c91f3613300527f30644e72e131a029b85045b68181585d97816a916871ca8d3c208c16d87cfd47600161040051610420518382830984600386838609088583840914841693505050506104405161046051838283098460038683860908858384091484169350505050610480516104a0518382830984600386838609088583840914841693505050506104c0516104e05183828309846003868386090885838409148416935050815f5280602052505061050051610520518382830984600386838609088583840914841693505050506105405161056051838283098460038683860908858384091484169350505050610580516105a0518382830984600386838609088583840914841693505050506105c0516105e05183828309846003868386090885838409148416935050505061060051610620518382830984600386838609088583840914841693505050506106405161066051838283098460038683860908858384091484169350505050610680516106a0518382830984600386838609088583840914841693505050506106c0516106e05183828309846003868386090885838409148416935050505061070051610720518382830984600386838609088583840914841693505050506107405161076051838283098460038683860908858384091484169350505050610780516107a0518382830984600386838609088583840914841693505050506107c0516107e05183828309846003868386090885838409148416935050505061080051610820518382830984600386838609088583840914841693505050506108405161086051838283098460038683860908858384091484169350505050610880516108a0518382830984600386838609088583840914841693505050506108c0516108e05183828309846003868386090885838409148416935050505061090051610920518382830984600386838609088583840914841693505050506109405161096051838283098460038683860908858384091484169350505050610980516109a05183828309846003868386090885838409148416935050505080610aed57637e5769bf60e01b5f5260045ffd5b5050612b1c80610afc5f395ff3fe608060405234801561000f575f80fd5b5060043610610034575f3560e01c8063937f6a1014610038578063ea50d0e41461006b575b5f80fd5b6040517f62b200a87a933aee9268061dfcd79fcb48dbb1a943ea003ca85d003cc4b048cc81526020015b60405180910390f35b61007e610079366004612a2c565b61008e565b6040519015158152602001610062565b621000006103805260246103a0527f26125da10a0ed06327508aba06d1e303ac616632dbed349f53422da9533378576103c0527f30644b6c9c4a72169e4daa317d25f04512ae15c53b34e8f5acd8e155d0a6c1016103e0527f2e97afe282ffec89806cb7156e0f226b1cf37a4a7cecb0384ba21589c82372d7610400527f22b801b38964e56ada9f196a7aff29fd0951592461ca2fdc63dcbc6cb2909a7b610420527f1fc910f04c97e54ceb9180f7bc89b97c0d5a8f4e24289fbe3ea571b7e451e6ff610440527f2e2fcf03084ba917c45b2a01a330b0007997ebf769987e677732364462122f80610460527f09b5a2d179a94d19b7889c066475572f15915b3b48ac57d26ee2c1dc7760d8d8610480527f2d91a76a03065084f0f104c106ef0a422535a92d1a764043798aefbdcc8c917c6104a0527f0519751cb46a879a501803a3cb4e2a1128423dfabc2bc5c745d143eacb5944446104c0527f147a205515bc7cf6fc25d39d9a046210317af85386e8333958cf9704c0f2e9a76104e0527f04439196bc80e03e59e7d24ee04e68f7a6e478972e6134921c73b3b00f15e564610500527f2f5c8eff0895d6dea06ff5c3ab38dba20caf4c25ee62c35c240d09167d00b8e6610520527f07f34957b49e654fe2cef183c7d3d3e568845470257f820edeb62969f0201bac610540527f229be1e009e79bb6ac006d8ceaba01b3f290dc5ee78b0274b6923afda2bf6d81610560527f258f069de038dfaeea1347be6ed1008c2d15a5bf0fd30b94ba3276ac66612e9a610580527f166974c8d43a0e11a5c078a724bc0bc1d2a0ace429fb3745a24991da8cd03ecd6105a0527f1c7504ffa1eba8e7aa3def8ec9754eaaeca2d86284a9538615d52246ad2a6b7e6105c0527f29f650e468f20f0398ba3730455f922cea1823011f1c0f499e8769df16b1024e6105e0527f06c093e4760cabdd979a94e974fa7c14dfe00637cdf5b430c7d27cff3299d262610600527e8aef0572e8120fcd06449668f2f210017bbce40c3bd5c978190068113f73a5610620527f05b72ccc1d0fe81091a2a06643149d674ca1118a50df624fe399fdbaa8507132610640527f23c8412893f9125031b41f559e981a00667f99b2d9c7d798ffc0677d342c9425610660527f24dfc57fa5ba0b71a6872566b6f868b656325a20a5fe8f5d262981ed4b3498e7610680527f11027653c51c2efd15a752f41b92c0f7c17377d708b069cc8d0487c59b20eb3a6106a0527f24b7fb842fd078a11b58f12bc779b9cc26ea57a18bba48544c526c100f6e97df6106c0527f11ddf7d299f914a3e65306d98901058017fce4fdd6e52b54ce7a075499a0fc6f6106e0527f259f0797fa04bb9001b4ef008b3d81e26da95175e835d5bcce74e11f82234063610700527f12bed9c5d3e436f8b8649461c43dcb608e7d7e8b85b87178f0d79e2ba05ff176610720527f20a96e2a3e694de19b16b966a93cb7b1ab1f9be1ed724c36c9cdbb774f5800d7610740527f02397b672cd35ac2e14cc8738b660293be2e431bbdfd5ddbe60022e9a52c276a610760527f1c17b8bbe90b18458eafb78a1ec44e20823f08c2a727694b7a2fd2c80473b318610780527f0c8f2c538ca5648ae3652fa1457de152013eade31795f2899b47610650f488fa6107a0527f236b5c10f340ff6d3ccfa5f2f1c8e4d32c41f9cde329b324d4b26f20691acd586107c0527f14d1642b960f8f14c708ff3fa20b0845b365f3fbb85cee5ec020883b4226b52e6107e0527f266e9d7a512cb2d0fcf72c19b63c735b3951b8a44999234e44afebdf7148e04e610800527f1f31241ced8ec52b2bfdf560732a44654001aaa32d3fb8e0b3880fa8e9c746dc610820527f2c2286b2c0efae3c6586c754ef75871b8640bd2c5a0fb04e64faf604775d1636610840527f06aaaabfef1843b2b4eaa7233673bfbc44c3a302ffd0a411a17dd42932b42198610860527f06c1535892aba62c64ce011935a30c2c278ff99361e118e5b256117c39905efd610880527e420b4a168c3086fa31b3c129c6e5eb0cf85cf53ca2988c643fbaa29f965ebd6108a0527f1fe6260c886baa5a5bacd55ec336888cd5a5395d9e0f9129acd51a2356529d7a6108c0527f1aeed36fc20b98133b216b62bffdc7b35150b22c2b313e32d1d86b93bc6b3c466108e0527f1117a73e86b0a39e3a6e4be1022ed15adb62aecaa0bf1214f22eacc4ca063b60610900527f093a79d9504787560945fb8a2a9e11d758325bb257dd43872d5f5f6d76f20b58610920527f2594762014d0024ddf4dcab3181bf34b469a6e56f91bfb58c68b8201cae8050d610940527f2f69e5475d9d65ede2bd89f9823a09e53f9968f480b355174f824d8b39006751610960527e4265fcad0b471308143277e83bd7d59a83efa42a4a35175d76d7c3e15666fb610980527f24d2d6993aefe4badbd77fe9e84333cc9d20078ef20a80984e8a8e20a3bec7bb6109a0525f6109c08190526109e08190527f260e01b251f6f1c7e7ff4e580791dee8ea51d87a358e038b4efe30fac09383c1610a00527f0118c4d5b837bcc2bc89b5b398b5974e9f5944073b32078b7e231fec938883b0610a20527f04fc6369f7110fe3d25156c1bb9a72859cf2a04641f99ba4ee413c80da6a5fe4610a40527f22febda3c0c0632a56475b4214e5615e11e6dd3f96e6cea2854a87d4dacc5e55610a60527f100c332d2100895fab6473bc2c51bfca521f45cb3baca6260852a8fde26c91f3613300526103a05182811461088157604051637667dc9b60e01b8152600481018290526024810184905260440160405180910390fd5b7f30644e72e131a029b85045b68181585d97816a916871ca8d3c208c16d87cfd477f30644e72e131a029b85045b68181585d2833e84879b9709143e1f593f00000016024600435018281350661122052826020820135066112005282604082013506611260528260608201350661124052826080820135066112a0528260a082013506611280528260c0820135066112e0528260e0820135066112c05282610100820135066113205282610120820135066113005282610140820135066113605282610160820135066113405282610180820135066113a052826101a08201350661138052826101c0820135066113e052826101e0820135066113c05282610200820135066114205282610220820135066114005282610240820135066114605282610260820135066114405282610280820135066114a052826102a08201350661148052816102c08201350661160052816102e0820135066116205281610300820135066116405281610320820135066116605281610340820135066116805281610360820135066116a05281610380820135066116c052816103a0820135066116e052816103c08201350661170052816103e0820135066117205281610400820135066117405281610420820135066117605281610440820135066117805281610460820135066117a05281610480820135066117c052816104a0820135066117e052816104c08201350661180052816104e0820135066119605281610500820135066119805281610520820135066119a05281610540820135066119c052816105608201350661184052816105808201350661186052816105a08201350661188052816105c0820135066118a052816105e0820135066118c05281610600820135066118e05281610620820135066119005281610640820135066119205281610660820135066119405281610680820135066119e052816106a08201350661200052816106c08201350661202052816106e0820135066120405281610700820135066120605281610720820135066120805281610740820135066120a05281610760820135066120c05281610780820135066120e052816107a08201350661210052816107c08201350661212052826107e08201350661232052826108008201350661230052826108208201350661236052826108408201350661234052506109c05115610ce1576024803501806109e05160051b0190508035602082013560441b81019050604082013560881b81019050606082013560cc1b81019050608082013560a083013560441b8101905060c083013560881b8101905060e083013560cc1b8101905061010083013561012084013560441b8101905061014084013560881b8101905061016084013560cc1b810190506101808401356101a085013560441b810190506101c085013560881b810190506101e085013560cc1b810190508361340052826134205281613440528061346052868110878410168783108886101616610cdb576375d4fa5360e11b5f5260045ffd5b50505050505b6103805160e01b5f526103a05160e01b60045260085f208061348052602480350160206103a05102808260206134800137600435602401915060c0826134a083013760e0016134802083810661266081905290925090508281800961268052828161268051096126a05250805f526112e0516020526112c051604052611320516060526113005160805260a05f20905081810661260052805f5260016020535060215f90812082810661262052815261136051602052611340516040526113a0516060526113805160805260a09020818106612640819052828180096133205282816133205109613340528281613340510961336052806133805250805f526113e0516020526113c05160405261142051606052611400516080526114605160a0526114405160c0526114a05160e05261148051610100526101205f2090508181066126c052806126e0525061260051612620516103c051600180856001602480350160206103a0510281018360058a0984600c8b0999505b81831015610e9957823585811085169450858a82089050858183018909975085818c01880996505084888209905084888b099950602083019250610e5a565b50505080610eb05763374a972f60e01b5f5260045ffd5b50508161300052806130205250505050508081600161260051086126205109806103805160015b81811015610eec578483840992508001610ed7565b5050613100528181800990508181820961312052506126c05161038051819060015b81811015610f23578483840992508001610f0e565b50508061304052826001840382089050613300518084036103e051858286088684840992508687848808820990508684840992508687848808820990508687888686098808820990506103c051925086828609915086600188038708878485099450876001890389898b888d8b8c0909090896506130205194508493508782860994508488878709955085898388099650868a61312051890997508760205f526020805260206040528b8b8a0960605260028c036080528b60a05260205f60c05f60055afa610ffb57633e2529ef60e21b5f5260045ffd5b5f5198508b818a0990508b8b8a0998508b828a0991508b613120518a0998508b838a0992508b858a0998508b848a0993508b8a8a0998508b888a0997508b868a0998508b613020518d8b8c090998508b896130005109613060528b888b09613080528b848709613680528b8388096130a0528b826131005109613140528b8188096130c052505050505050505050505061264051506126005161262051828361190051840982611620510101846118e051850983611600510101098384611940518509836116605101018561192051860984611640510101098485868385096116a051096133805109858661198051870985611620510101876119605188098661160051010109925085866119c051870985611660510101876119a0518809866116405101010991508586878885870961208051096133805109870382089050856126405161338051096133805285868788613060518a0361208051086130c0510961338051098208905085612640516133805109613380528586878860018a036116a051086130a05109613380510982086135005250505050508061264051613380510961338052806117205161266051098182836120205161178051096116405108820890508161266051820990508182836120005161176051096116205108820890508161266051820990508182836119e0516117005109611600510882089050816118405183846126605161186051098586612680516118805109876126a0516118a05109080808826120c0518485612660516120e051098687612680516121005109886126a051612120510908080883846001612600510861262051098461262051866118c051870908935084818687612600518609860808925084838509935084856001612600510885099350846130a05161264051099250848385089350846116c0518509935084838603850893508481868761260051612060510961168051080892505050826130c05161332051098381850383089150836120a05183099150838461314051830983089150508261338051848386038508096135205250508061334051613380510961338052806116e0516116005109816117005161162051098261172051611640510983611740516116605109847f183227397098d014dc2822db40c0ac2e9419f4243cdcb848a1f0fac9f80000008687600389036117a0510888611760518a6116205161160051090909098586878889858a08880886088408611780510894505050505081828384856116605161160051086119e051870308611760510884600286036117a05108096126405109828384858685612040510887600189036117a051080985086117a05109613380510961354052505080613320516133805109613380526002810360038203826116005184036116205108836116205185036116405108846116405186036116605108856116605187036119e05108866133805188898888088a8b8b8a088c8a8e038e8c8d09080909099350868788612640516133805109898a8988088b8c8c8a088d8a8f038f8c8d090809090985089350868788613320516133805109898a8987088b8c8c89088d898f038f8b8c090809090985089350868788613340516133805109898a8986088b8c8c88088d888f038f8a8b090809090985089350505050836117c051820961356052505061336051613380518392500961338052806116205182036119e051088161204051612040510982611640516116405109836116e05185612040516116405109098485868384088785870888030886878788098889611620516119e0510861200051080908925050508261338051848561176051870360010884090990508261202051611640510883611640518503856116e05161204051090884858287611620518903612000510809868685090893505050828361264051613380510984856117605187036001088509099150826117e0518484840809613580525050806116205161162051098161164051611640510982611620518460118408098360048309915083600982099050836003840992508381850385848788611620516116205108612000510809089150508283846120205161164051088561164051611640510809840384856120005187036116205108850908915082613380518209905082836126405161338051098309915082611760518209905082611760518309915082836117e0518585850809613580510861358052505080613360516133805109613380528081611620516119e05109826120005161160051090881612020518303838461164051611620510985611660516116005109080882600160441b82099050826120405184038208905082828208905082611740518209905082600160441b830991508283612000516119e05109830891508261172051848561166051611640510886038508098361176051858661204051612020510887038761166051880808099250836117005185858786860808096135c0525050612000518291506140009009816119e0518208905081614000820990508161164051820890508161400082099050816116205182089050816140008209905081611600518208905081611660518303820890508161174051820990508161400061202051098261200051820890508261400082099050826119e05182089050826140008209905082611660518208905082614000820990508261164051820890508261204051840382089050826117605182099050826117205184838508096135e0525050806126605161164051098161162051820890508161266051820990508161160051820890508161266051820990508161178051820890508082611660518403830891508161364052826116005184036119e05108836116605185036120405108848560018703840883098586848803600108830991508585876126405189858b61264051890908090861362052856126605161202051099450856120005186089450856126605186099450856119e0518608945085612660518609945085858703612040510894508561164051870361202051089150858687878903600108840987858903600108099150858487036116605108868760018903830882099050868760018903880887099550866126405184099250868284089250866126405184099250868684089250866126405184099250868184089250508161360052505083611620518503612000510892508361164051850385868488036001088609089250836117005161362051099150838461174051850983089150838461176051613640510983089150836116e0518309915083846117a051613600510983089150836135c05183089250836135e05184089250836118005184099250836133805184099250826135a05283613340516133805109613380525050508061368051826135a0518461358051866135605188613540518a61352051613500510808080808096136608190526126e0516136a08190526136c0919091526102e460043501610520816136e03750506105606136a020818106612700525f81905260016020538160215f20066127205260026020538160215f20066127405260036020538160215f20066127605260046020538160215f20066127805260056020538160215f20066127a05260066020538160215f20066127c05260076020538160215f20066127e05260086020538160215f20066128005260096020538160215f200661282052600a6020538160215f200661284052600b6020538160215f200661286052600c6020538160215f200661288052600d6020538160215f20066128a052600e6020538160215f20066128c052600f6020538160215f20066128e05260106020538160215f20066129005260116020538160215f20066129205260126020538160215f20066129405260136020538160215f20066129605260146020538160215f20066129805260156020538160215f20066129a05260166020538160215f20066129c05260176020538160215f20066129e05260186020538160215f2006612a005260196020538160215f2006612a2052601a6020538160215f2006612a4052601b6020538160215f2006612a6052601c6020538160215f2006612a8052601d6020538160215f2006612aa052601d6020535060215f908120828106612ac05281526123205160205261230051604052612360516060526123405160805260a08120829006612b00526113c0516113e0518482800985600387838609088683840914611c40576328f6b59560e21b5f5260045ffd5b50613160919091526131805261140051611420518482800985600387838609088683840914611c78576328f6b59560e21b5f5260045ffd5b50815f528060205250506130405160405260406131a060605f60075afa90506040613160608061316060065afa8116905061144051611460518482830985600387838609088683840914611cd5576328f6b59560e21b5f5260045ffd5b505f91909152602052613040518290800960405260406131a060605f60075afa16604061316060808160065afa81169050611480516114a0518482830985600387838609088683840914611d32576328f6b59560e21b5f5260045ffd5b505f91909152602052613040518290818180090960405260406131a060605f60075afa16604061316060808160065afa8116905061120051611220518482830985600387838609088683840914611d92576328f6b59560e21b5f5260045ffd5b50815f528060205250508161270051836001612b0051080960405260406131a060605f60075afa16604061316060808160065afa8116905061124051611260518482830985600387838609088683840914611df6576328f6b59560e21b5f5260045ffd5b50815f528060205250508161272051836001612b0051080960405260406131a060605f60075afa16604061316060808160065afa81169050611280516112a0518482830985600387838609088683840914611e5a576328f6b59560e21b5f5260045ffd5b50815f528060205250508161274051836001612b0051080960405260406131a060605f60075afa16604061316060808160065afa811690506112c0516112e0518482830985600387838609088683840914611ebe576328f6b59560e21b5f5260045ffd5b50815f528060205250508161276051836001612b0051080960405260406131a060605f60075afa16604061316060808160065afa8116905061130051611320518482830985600387838609088683840914611f22576328f6b59560e21b5f5260045ffd5b50815f528060205250508161278051836001612b0051080960405260406131a060605f60075afa16604061316060808160065afa8116905061134051611360518482830985600387838609088683840914611f86576328f6b59560e21b5f5260045ffd5b50815f52806020525050816127a051836001612b0051080960405260406131a060605f60075afa16604061316060808160065afa81169050611380516113a0518482830985600387838609088683840914611fea576328f6b59560e21b5f5260045ffd5b50815f52806020525050816127c051836001612b0051080960405260406131a060605f60075afa16604061316060808160065afa81169050610400515f52610420516020526127e05160405260406131a060605f60075afa16604061316060808160065afa81169050610440515f52610460516020526128005160405260406131a060605f60075afa16604061316060808160065afa81169050610480515f526104a0516020526128205160405260406131a060605f60075afa16604061316060808160065afa811690506104c0515f526104e0516020526128405160405260406131a060605f60075afa16604061316060808160065afa81169050610500515f52610520516020526128605160405260406131a060605f60075afa16604061316060808160065afa81169050610540515f52610560516020526128805160405260406131a060605f60075afa16604061316060808160065afa81169050610580515f526105a0516020526128a05160405260406131a060605f60075afa16604061316060808160065afa811690506105c0515f526105e0516020526128c05160405260406131a060605f60075afa16604061316060808160065afa81169050610600515f52610620516020526128e05160405260406131a060605f60075afa16604061316060808160065afa81169050610640515f52610660516020526129005160405260406131a060605f60075afa16604061316060808160065afa81169050610680515f526106a0516020526129205160405260406131a060605f60075afa16604061316060808160065afa811690506106c0515f526106e0516020526129405160405260406131a060605f60075afa16604061316060808160065afa81169050610700515f52610720516020526129605160405260406131a060605f60075afa16604061316060808160065afa81169050610740515f52610760516020526129805160405260406131a060605f60075afa16604061316060808160065afa81169050610780515f526107a051602052816129a051836001612b0051080960405260406131a060605f60075afa16604061316060808160065afa811690506107c0515f526107e051602052816129c051836001612b0051080960405260406131a060605f60075afa16604061316060808160065afa81169050610800515f5261082051602052816129e051836001612b0051080960405260406131a060605f60075afa16604061316060808160065afa81169050610840515f526108605160205281612a0051836001612b0051080960405260406131a060605f60075afa16604061316060808160065afa81169050610880515f526108a051602052612a205160405260406131a060605f60075afa16604061316060808160065afa811690506108c0515f526108e051602052612a405160405260406131a060605f60075afa16604061316060808160065afa81169050610900515f5261092051602052612a605160405260406131a060605f60075afa16604061316060808160065afa81169050610940515f5261096051602052612a805160405260406131a060605f60075afa16604061316060808160065afa81169050610980515f526109a051602052612aa05160405260406131a060605f60075afa16604061316060808160065afa8116905081826116005184612b00516119e051090861270051098283846116205186612b00516120005109086127205109820890508283846116405186612b00516120205109086127405109820890508283846116605186612b00516120405109086127605109820890508283846116805186612b00516120605109086127805109820890508283846116a05186612b00516120805109086127a05109820890508283846116c05186612b00516120a05109086127c051098208905082836116e0516127e051098208905082836117005161280051098208905082836117205161282051098208905082836117405161284051098208905082836117605161286051098208905082836117805161288051098208905082836117a0516128a051098208905082836117c0516128c051098208905082836117e0516128e051098208905082836118005161290051098208905082836119605161292051098208905082836119805161294051098208905082836119a05161296051098208905082836119c0516129805109820890508283846118405186612b00516120c05109086129a05109820890508283846118605186612b00516120e05109086129c05109820890508283846118805186612b00516121005109086129e05109820890508283846118a05186612b0051612120510908612a0051098208905082836118c051612a2051098208905082836118e051612a40510982089050828361190051612a60510982089050828361192051612a80510982089050828361194051612aa051098208905082613660518208905060015f5260026020528083036040525060406131a060605f60075afa16604061316060808160065afa168061273957634e71976360e01b5f5260045ffd5b612b00516126c0516123005161232051868283098760038983860908888384091461276d576328f6b59560e21b5f5260045ffd5b50815f528060205250508060405260406131a060605f60075afa92506040613160608061316060065afa83169250612340516123605186828309876003898386090888838409146127c7576328f6b59560e21b5f5260045ffd5b50815f52806020525050836103c05185838509096040525060406131a060605f60075afa821691506040613220608061316060065afa82169150612300515f52612320516020526123405160405261236051606052806080526040806060604060075afa8216915060406131e060805f60065afa82169150613200518403613200526109c0511561291c576134005161342051858283098660038883860908878384091461287e576328f6b59560e21b5f5260045ffd5b505f919091526020528281800960405260406060805f60075afa82169150613440516134605185828309866003888386090887838409146128c8576328f6b59560e21b5f5260045ffd5b505f91825260205260409060608160075afa821691506132205160a0526132405160c05260406132206080606060065afa821691506131e0516040526132005160605260406131e060805f60065afa821691505b5080612931576301882d8160e01b5f5260045ffd5b613220515f52613240516020527f198e9393920d483a7260bfb731fb5d25f1aa493335a9e71297e485b7aef312c26040527f1800deef121f1e76426a00665e5c4479674322d4f75edadd46debd5cd992f6ed6060527f090689d0585ff075ec9e99ad690c3395bc4b313370b38ef355acdadcd122975b6080527f12c85ea5db8c6deb4aab71808dcb408fe3d1e7690c43d37b4ce6cc0166fa7daa60a0526131e05160c0526132005160e052610a005161010052610a205161012052610a405161014052610a60516101605260205f6101805f60085afa90505f518116612a205763d71fd26360e01b5f5260045ffd5b50505060015f5260205ff35b5f805f8060408587031215612a3f575f80fd5b843567ffffffffffffffff80821115612a56575f80fd5b818701915087601f830112612a69575f80fd5b813581811115612a77575f80fd5b886020828501011115612a88575f80fd5b602092830196509450908601359080821115612aa2575f80fd5b818701915087601f830112612ab5575f80fd5b813581811115612ac3575f80fd5b8860208260051b8501011115612ad7575f80fd5b9598949750506020019450505056fea2646970667358221220cc4c000e1ceb97b9ea5feb8776fb9ebe6dc19f355b2ef7b003331002918f130964736f6c63430008170033",
  "linkReferences": {},
  "deployedLinkReferences": {}
}