{
  "_format": "hh-sol-artifact-1",
  "contractName": "Token",
  "sourceName": "contracts/Token.sol",
  "abi": [
    {
      "inputs": [],
      "stateMutability": "nonpayable",
      "type": "constructor"
    },
    {
      "inputs": [
        {
          "internalType": "address",
          "name": "spender",
          "type": "address"
        },
        {
          "internalType": "uint256",
          "name": "allowance",
          "type": "uint256"
        },
        {
          "internalType": "uint256",
          "name": "needed",
          "type": "uint256"
        }
      ],
      "name": "ERC20InsufficientAllowance",
      "type": "error"
    },
    {
      "inputs": [
        {
          "internalType": "address",
          "name": "sender",
          "type": "address"
        },
        {
          "internalType": "uint256",
          "name": "balance",
          "type": "uint256"
        },
        {
          "internalType": "uint256",
          "name": "needed",
          "type": "uint256"
        }
      ],
      "name": "ERC20InsufficientBalance",
      "type": "error"
    },
    {
      "inputs": [
        {
          "internalType": "address",
          "name": "approver",
          "type": "address"
        }
      ],
      "name": "ERC20InvalidApprover",
      "type": "error"
    },
    {
      "inputs": [
        {
          "internalType": "address",
          "name": "receiver",
          "type": "address"
        }
      ],
      "name": "ERC20InvalidReceiver",
      "type": "error"
    },
    {
      "inputs": [
        {
          "internalType": "address",
          "name": "sender",
          "type": "address"
        }
      ],
      "name": "ERC20InvalidSender",
      "type": "error"
    },
    {
      "inputs": [
        {
          "internalType": "address",
          "name": "spender",
          "type": "address"
        }
      ],
      "name": "ERC20InvalidSpender",
      "type": "error"
    },
    {
      "inputs": [
        {
          "internalType": "address",
          "name": "owner",
          "type": "address"
        }
      ],
      "name": "OwnableInvalidOwner",
      "type": "error"
    },
    {
      "inputs": [
        {
          "internalType": "address",
          "name": "account",
          "type": "address"
        }
      ],
      "name": "OwnableUnauthorizedAccount",
      "type": "error"
    },
    {
      "inputs": [],
      "name": "VerificationFailed",
      "type": "error"
    },
    {
      "anonymous": false,
      "inputs": [
        {
          "indexed": true,
          "internalType": "address",
          "name": "owner",
          "type": "address"
        },
        {
          "indexed": true,
          "internalType": "address",
          "name": "spender",
          "type": "address"
        },
        {
          "indexed": false,
          "internalType": "uint256",
          "name": "value",
          "type": "uint256"
        }
      ],
      "name": "Approval",
      "type": "event"
    },
    {
      "anonymous": false,
      "inputs": [
        {
          "indexed": true,
          "internalType": "address",
          "name": "previousOwner",
          "type": "address"
        },
        {
          "indexed": true,
          "internalType": "address",
          "name": "newOwner",
          "type": "address"
        }
      ],
      "name": "OwnershipTransferred",
      "type": "event"
    },
    {
      "anonymous": false,
      "inputs": [
        {
          "indexed": true,
          "internalType": "address",
          "name": "from",
          "type": "address"
        },
        {
          "indexed": true,
          "internalType": "address",
          "name": "to",
          "type": "address"
        },
        {
          "indexed": false,
          "internalType": "uint256",
          "name": "value",
          "type": "uint256"
        }
      ],
      "name": "Transfer",
      "type": "event"
    },
    {
      "inputs": [
        {
          "internalType": "address",
          "name": "to",
          "type": "address"
        },
        {
          "internalType": "uint256",
          "name": "amount",
          "type": "uint256"
        },
        {
          "internalType": "bytes32",
          "name": "blkhash",
          "type": "bytes32"
        },
        {
          "internalType": "bytes32",
          "name": "nullifier",
          "type": "bytes32"
        }
      ],
      "name": "_formatPublicInputs",
      "outputs": [
        {
          "internalType": "bytes32[]",
          "name": "",
          "type": "bytes32[]"
        }
      ],
      "stateMutability": "pure",
      "type": "function"
    },
    {
      "inputs": [
        {
          "internalType": "address",
          "name": "owner",
          "type": "address"
        },
        {
          "internalType": "address",
          "name": "spender",
          "type": "address"
        }
      ],
      "name": "allowance",
      "outputs": [
        {
          "internalType": "uint256",
          "name": "",
          "type": "uint256"
        }
      ],
      "stateMutability": "view",
      "type": "function"
    },
    {
      "inputs": [
        {
          "internalType": "address",
          "name": "spender",
          "type": "address"
        },
        {
          "internalType": "uint256",
          "name": "value",
          "type": "uint256"
        }
      ],
      "name": "approve",
      "outputs": [
        {
          "internalType": "bool",
          "name": "",
          "type": "bool"
        }
      ],
      "stateMutability": "nonpayable",
      "type": "function"
    },
    {
      "inputs": [
        {
          "internalType": "address",
          "name": "account",
          "type": "address"
        }
      ],
      "name": "balanceOf",
      "outputs": [
        {
          "internalType": "uint256",
          "name": "",
          "type": "uint256"
        }
      ],
      "stateMutability": "view",
      "type": "function"
    },
    {
      "inputs": [],
      "name": "decimals",
      "outputs": [
        {
          "internalType": "uint8",
          "name": "",
          "type": "uint8"
        }
      ],
      "stateMutability": "view",
      "type": "function"
    },
    {
      "inputs": [],
      "name": "fullVerifier",
      "outputs": [
        {
          "internalType": "address",
          "name": "",
          "type": "address"
        }
      ],
      "stateMutability": "view",
      "type": "function"
    },
    {
      "inputs": [
        {
          "internalType": "address",
          "name": "to",
          "type": "address"
        },
        {
          "internalType": "uint256",
          "name": "amount",
          "type": "uint256"
        }
      ],
      "name": "mint",
      "outputs": [],
      "stateMutability": "nonpayable",
      "type": "function"
    },
    {
      "inputs": [],
      "name": "name",
      "outputs": [
        {
          "internalType": "string",
          "name": "",
          "type": "string"
        }
      ],
      "stateMutability": "view",
      "type": "function"
    },
    {
      "inputs": [
        {
          "internalType": "bytes32",
          "name": "",
          "type": "bytes32"
        }
      ],
      "name": "nullifiers",
      "outputs": [
        {
          "internalType": "bool",
          "name": "",
          "type": "bool"
        }
      ],
      "stateMutability": "view",
      "type": "function"
    },
    {
      "inputs": [],
      "name": "owner",
      "outputs": [
        {
          "internalType": "address",
          "name": "",
          "type": "address"
        }
      ],
      "stateMutability": "view",
      "type": "function"
    },
    {
      "inputs": [
        {
          "internalType": "address",
          "name": "to",
          "type": "address"
        },
        {
          "internalType": "uint256",
          "name": "amount",
          "type": "uint256"
        },
        {
          "internalType": "uint256",
          "name": "blockNum",
          "type": "uint256"
        },
        {
          "internalType": "bytes32",
          "name": "nullifier",
          "type": "bytes32"
        },
        {
          "internalType": "bytes",
          "name": "snarkProof",
          "type": "bytes"
        }
      ],
      "name": "reMint",
      "outputs": [],
      "stateMutability": "nonpayable",
      "type": "function"
    },
    {
      "inputs": [
        {
          "internalType": "address",
          "name": "to",
          "type": "address"
        },
        {
          "internalType": "uint256",
          "name": "amount",
          "type": "uint256"
        },
        {
          "internalType": "uint256",
          "name": "blockNum",
          "type": "uint256"
        },
        {
          "internalType": "bytes32",
          "name": "nullifier",
          "type": "bytes32"
        },
        {
          "internalType": "bytes",
          "name": "snarkProof",
          "type": "bytes"
        }
      ],
      "name": "reMintFullVerifier",
      "outputs": [],
      "stateMutability": "nonpayable",
      "type": "function"
    },
    {
      "inputs": [],
      "name": "renounceOwnership",
      "outputs": [],
      "stateMutability": "nonpayable",
      "type": "function"
    },
    {
      "inputs": [
        {
          "internalType": "bytes32",
          "name": "blockHash",
          "type": "bytes32"
        },
        {
          "internalType": "uint256",
          "name": "blockNum",
          "type": "uint256"
        }
      ],
      "name": "setBlockHash",
      "outputs": [],
      "stateMutability": "nonpayable",
      "type": "function"
    },
    {
      "inputs": [
        {
          "internalType": "address",
          "name": "_fullVerifier",
          "type": "address"
        },
        {
          "internalType": "address",
          "name": "_smolVerifier",
          "type": "address"
        }
      ],
      "name": "setVerifiers",
      "outputs": [],
      "stateMutability": "nonpayable",
      "type": "function"
    },
    {
      "inputs": [],
      "name": "smolVerifier",
      "outputs": [
        {
          "internalType": "address",
          "name": "",
          "type": "address"
        }
      ],
      "stateMutability": "view",
      "type": "function"
    },
    {
      "inputs": [],
      "name": "symbol",
      "outputs": [
        {
          "internalType": "string",
          "name": "",
          "type": "string"
        }
      ],
      "stateMutability": "view",
      "type": "function"
    },
    {
      "inputs": [],
      "name": "totalSupply",
      "outputs": [
        {
          "internalType": "uint256",
          "name": "",
          "type": "uint256"
        }
      ],
      "stateMutability": "view",
      "type": "function"
    },
    {
      "inputs": [
        {
          "internalType": "address",
          "name": "to",
          "type": "address"
        },
        {
          "internalType": "uint256",
          "name": "value",
          "type": "uint256"
        }
      ],
      "name": "transfer",
      "outputs": [
        {
          "internalType": "bool",
          "name": "",
          "type": "bool"
        }
      ],
      "stateMutability": "nonpayable",
      "type": "function"
    },
    {
      "inputs": [
        {
          "internalType": "address",
          "name": "from",
          "type": "address"
        },
        {
          "internalType": "address",
          "name": "to",
          "type": "address"
        },
        {
          "internalType": "uint256",
          "name": "value",
          "type": "uint256"
        }
      ],
      "name": "transferFrom",
      "outputs": [
        {
          "internalType": "bool",
          "name": "",
          "type": "bool"
        }
      ],
      "stateMutability": "nonpayable",
      "type": "function"
    },
    {
      "inputs": [
        {
          "internalType": "address",
          "name": "newOwner",
          "type": "address"
        }
      ],
      "name": "transferOwnership",
      "outputs": [],
      "stateMutability": "nonpayable",
      "type": "function"
    },
    {
      "inputs": [
        {
          "internalType": "uint256",
          "name": "",
          "type": "uint256"
        }
      ],
      "name": "trustedBlockhash",
      "outputs": [
        {
          "internalType": "bytes32",
          "name": "",
          "type": "bytes32"
        }
      ],
      "stateMutability": "view",
      "type": "function"
    }
  ],
  "bytecode": "0x608060405234801562000010575f80fd5b5033604051806040016040528060118152602001703d35bbb7b936b437b632b996ba37b5b2b760791b8152506040518060400160405280600581526020016415d493521360da1b81525081600390816200006b9190620001ac565b5060046200007a8282620001ac565b5050506001600160a01b038116620000ab57604051631e4fbdf760e01b81525f600482015260240160405180910390fd5b620000b681620000bd565b5062000278565b600580546001600160a01b038381166001600160a01b0319831681179093556040519116919082907f8be0079c531659141344cd1fd0a4f28419497f9722a3daafe3b4186f6b6457e0905f90a35050565b634e487b7160e01b5f52604160045260245ffd5b600181811c908216806200013757607f821691505b6020821081036200015657634e487b7160e01b5f52602260045260245ffd5b50919050565b601f821115620001a757805f5260205f20601f840160051c81016020851015620001835750805b601f840160051c820191505b81811015620001a4575f81556001016200018f565b50505b505050565b81516001600160401b03811115620001c857620001c86200010e565b620001e081620001d9845462000122565b846200015c565b602080601f83116001811462000216575f8415620001fe5750858301515b5f19600386901b1c1916600185901b17855562000270565b5f85815260208120601f198616915b82811015620002465788860151825594840194600190910190840162000225565b50858210156200026457878501515f19600388901b60f8161c191681555b505060018460011b0185555b505050505050565b610f7580620002865f395ff3fe608060405234801561000f575f80fd5b506004361061013d575f3560e01c80636688321b116100b45780638f31746a116100795780638f31746a146102d057806395d89b41146102e3578063a9059cbb146102eb578063dd62ed3e146102fe578063e4f729bf14610336578063f2fde38b14610355575f80fd5b80636688321b1461026957806370a082311461027c578063715018a6146102a45780637c154d40146102ac5780638da5cb5b146102bf575f80fd5b80632e2766dc116101055780632e2766dc146101c95780632f552baf146101de578063313ce567146101fe57806340c10f191461020d5780635225d4eb1461022057806352569f561461024b575f80fd5b806306fdde0314610141578063095ea7b31461015f57806318160ddd1461018257806323b872dd146101945780632997e86b146101a7575b5f80fd5b610149610368565b6040516101569190610beb565b60405180910390f35b61017261016d366004610c52565b6103f8565b6040519015158152602001610156565b6002545b604051908152602001610156565b6101726101a2366004610c7a565b610411565b6101726101b5366004610cb3565b60066020525f908152604090205460ff1681565b6101dc6101d7366004610cca565b610434565b005b6101f16101ec366004610d61565b61045f565b6040516101569190610dd1565b60405160128152602001610156565b6101dc61021b366004610c52565b610584565b600854610233906001600160a01b031681565b6040516001600160a01b039091168152602001610156565b6101dc610259366004610dea565b5f90815260096020526040902055565b600754610233906001600160a01b031681565b61018661028a366004610e0a565b6001600160a01b03165f9081526020819052604090205490565b6101dc610592565b6101dc6102ba366004610e23565b6105a5565b6005546001600160a01b0316610233565b6101dc6102de366004610cca565b610692565b6101496106b5565b6101726102f9366004610c52565b6106c4565b61018661030c366004610e23565b6001600160a01b039182165f90815260016020908152604080832093909416825291909152205490565b610186610344366004610cb3565b60096020525f908152604090205481565b6101dc610363366004610e0a565b6106d1565b60606003805461037790610e54565b80601f01602080910402602001604051908101604052809291908181526020018280546103a390610e54565b80156103ee5780601f106103c5576101008083540402835291602001916103ee565b820191905f5260205f20905b8154815290600101906020018083116103d157829003601f168201915b5050505050905090565b5f3361040581858561070e565b60019150505b92915050565b5f3361041e858285610720565b61042985858561079b565b506001949350505050565b61045786868686868660075f9054906101000a90046001600160a01b03166107f8565b505050505050565b604080516042808252610860820190925260609185916001600160a01b038816915f9190602082016108408036833701905050905081815f815181106104a7576104a7610e8c565b602090810291909101015260015b602181101561050557836104ca600183610eb4565b602081106104da576104da610e8c565b835191901a908390839081106104f2576104f2610e8c565b60209081029190910101526001016104b5565b5060215b6041811015610559578661051e602183610eb4565b6020811061052e5761052e610e8c565b835191901a9083908390811061054657610546610e8c565b6020908102919091010152600101610509565b50848160418151811061056e5761056e610e8c565b6020908102919091010152979650505050505050565b61058e8282610941565b5050565b61059a610975565b6105a35f6109a2565b565b6105ad610975565b6007546001600160a01b03161561060b5760405162461bcd60e51b815260206004820152601d60248201527f766572696669657220697320616c7265616479207365742073696c6c7900000060448201526064015b60405180910390fd5b6008546001600160a01b0316156106645760405162461bcd60e51b815260206004820152601d60248201527f766572696669657220697320616c7265616479207365742073696c6c790000006044820152606401610602565b600880546001600160a01b039384166001600160a01b03199182161790915560078054929093169116179055565b61045786868686868660085f9054906101000a90046001600160a01b03166107f8565b60606004805461037790610e54565b5f3361040581858561079b565b6106d9610975565b6001600160a01b03811661070257604051631e4fbdf760e01b81525f6004820152602401610602565b61070b816109a2565b50565b61071b83838360016109f3565b505050565b6001600160a01b038381165f908152600160209081526040808320938616835292905220545f198114610795578181101561078757604051637dc7a0d960e11b81526001600160a01b03841660048201526024810182905260448101839052606401610602565b61079584848484035f6109f3565b50505050565b6001600160a01b0383166107c457604051634b637e8f60e11b81525f6004820152602401610602565b6001600160a01b0382166107ed5760405163ec442f0560e01b81525f6004820152602401610602565b61071b838383610ac5565b5f8481526006602052604090205460ff16156108565760405162461bcd60e51b815260206004820152601960248201527f6275726e206164647265737320616c72656164792075736564000000000000006044820152606401610602565b5f848152600660209081526040808320805460ff191660011790558783526009909152812054906108898989848961045f565b604051633a94343960e21b81529091506001600160a01b0384169063ea50d0e4906108bc90889088908690600401610ec7565b602060405180830381865afa1580156108d7573d5f803e3d5ffd5b505050506040513d601f19601f820116820180604052508101906108fb9190610f0d565b6109185760405163439cc0cd60e01b815260040160405180910390fd5b5050506001600160a01b039095165f908152602081905260409020805490940190935550505050565b6001600160a01b03821661096a5760405163ec442f0560e01b81525f6004820152602401610602565b61058e5f8383610ac5565b6005546001600160a01b031633146105a35760405163118cdaa760e01b8152336004820152602401610602565b600580546001600160a01b038381166001600160a01b0319831681179093556040519116919082907f8be0079c531659141344cd1fd0a4f28419497f9722a3daafe3b4186f6b6457e0905f90a35050565b6001600160a01b038416610a1c5760405163e602df0560e01b81525f6004820152602401610602565b6001600160a01b038316610a4557604051634a1406b160e11b81525f6004820152602401610602565b6001600160a01b038085165f908152600160209081526040808320938716835292905220829055801561079557826001600160a01b0316846001600160a01b03167f8c5be1e5ebec7d5bd14f71427d1e84f3dd0314c0f7b2291e5b200ac8c7c3b92584604051610ab791815260200190565b60405180910390a350505050565b6001600160a01b038316610aef578060025f828254610ae49190610f2c565b90915550610b5f9050565b6001600160a01b0383165f9081526020819052604090205481811015610b415760405163391434e360e21b81526001600160a01b03851660048201526024810182905260448101839052606401610602565b6001600160a01b0384165f9081526020819052604090209082900390555b6001600160a01b038216610b7b57600280548290039055610b99565b6001600160a01b0382165f9081526020819052604090208054820190555b816001600160a01b0316836001600160a01b03167fddf252ad1be2c89b69c2b068fc378daa952ba7f163c4a11628f55a4df523b3ef83604051610bde91815260200190565b60405180910390a3505050565b5f602080835283518060208501525f5b81811015610c1757858101830151858201604001528201610bfb565b505f604082860101526040601f19601f8301168501019250505092915050565b80356001600160a01b0381168114610c4d575f80fd5b919050565b5f8060408385031215610c63575f80fd5b610c6c83610c37565b946020939093013593505050565b5f805f60608486031215610c8c575f80fd5b610c9584610c37565b9250610ca360208501610c37565b9150604084013590509250925092565b5f60208284031215610cc3575f80fd5b5035919050565b5f805f805f8060a08789031215610cdf575f80fd5b610ce887610c37565b9550602087013594506040870135935060608701359250608087013567ffffffffffffffff80821115610d19575f80fd5b818901915089601f830112610d2c575f80fd5b813581811115610d3a575f80fd5b8a6020828501011115610d4b575f80fd5b6020830194508093505050509295509295509295565b5f805f8060808587031215610d74575f80fd5b610d7d85610c37565b966020860135965060408601359560600135945092505050565b5f815180845260208085019450602084015f5b83811015610dc657815187529582019590820190600101610daa565b509495945050505050565b602081525f610de36020830184610d97565b9392505050565b5f8060408385031215610dfb575f80fd5b50508035926020909101359150565b5f60208284031215610e1a575f80fd5b610de382610c37565b5f8060408385031215610e34575f80fd5b610e3d83610c37565b9150610e4b60208401610c37565b90509250929050565b600181811c90821680610e6857607f821691505b602082108103610e8657634e487b7160e01b5f52602260045260245ffd5b50919050565b634e487b7160e01b5f52603260045260245ffd5b634e487b7160e01b5f52601160045260245ffd5b8181038181111561040b5761040b610ea0565b60408152826040820152828460608301375f606084830101525f601f19601f85011682016060838203016020840152610f036060820185610d97565b9695505050505050565b5f60208284031215610f1d575f80fd5b81518015158114610de3575f80fd5b8082018082111561040b5761040b610ea056fea2646970667358221220b79e9b69c985af04d23b8e11a88562f6c15c999ca503c9c7de80fafbe1662eef64736f6c63430008170033",
  "linkReferences": {},
  "deployedLinkReferences": {}
}